{
  "_format": "hh3-artifact-1",
  "contractName": "GameStore",
  "sourceName": "contracts/GameStore.sol",
  "abi": [
    {
      "inputs": [
        {
          "internalType": "address",
          "name": "_oligToken",
          "type": "address"
        }
      ],
      "stateMutability": "nonpayable",
      "type": "constructor"
    },
    {
      "inputs": [
        {
          "internalType": "address",
          "name": "owner",
          "type": "address"
        }
      ],
      "name": "OwnableInvalidOwner",
      "type": "error"
    },
    {
      "inputs": [
        {
          "internalType": "address",
          "name": "account",
          "type": "address"
        }
      ],
      "name": "OwnableUnauthorizedAccount",
      "type": "error"
    },
    {
      "inputs": [],
      "name": "ReentrancyGuardReentrantCall",
      "type": "error"
    },
    {
      "anonymous": false,
      "inputs": [
        {
          "indexed": false,
          "internalType": "uint256",
          "name": "itemId",
          "type": "uint256"
        },
        {
          "indexed": false,
          "internalType": "string",
          "name": "name",
          "type": "string"
        },
        {
          "indexed": false,
          "internalType": "uint256",
          "name": "price",
          "type": "uint256"
        }
      ],
      "name": "ItemAdded",
      "type": "event"
    },
    {
      "anonymous": false,
      "inputs": [
        {
          "indexed": true,
          "internalType": "address",
          "name": "buyer",
          "type": "address"
        },
        {
          "indexed": true,
          "internalType": "uint256",
          "name": "itemId",
          "type": "uint256"
        },
        {
          "indexed": false,
          "internalType": "uint256",
          "name": "price",
          "type": "uint256"
        }
      ],
      "name": "ItemPurchased",
      "type": "event"
    },
    {
      "anonymous": false,
      "inputs": [
        {
          "indexed": true,
          "internalType": "address",
          "name": "previousOwner",
          "type": "address"
        },
        {
          "indexed": true,
          "internalType": "address",
          "name": "newOwner",
          "type": "address"
        }
      ],
      "name": "OwnershipTransferred",
      "type": "event"
    },
    {
      "inputs": [
        {
          "internalType": "string",
          "name": "_name",
          "type": "string"
        },
        {
          "internalType": "uint256",
          "name": "_price",
          "type": "uint256"
        },
        {
          "internalType": "bool",
          "name": "_isConsumable",
          "type": "bool"
        }
      ],
      "name": "addItem",
      "outputs": [],
      "stateMutability": "nonpayable",
      "type": "function"
    },
    {
      "inputs": [
        {
          "internalType": "uint256",
          "name": "_itemId",
          "type": "uint256"
        }
      ],
      "name": "buyItem",
      "outputs": [],
      "stateMutability": "nonpayable",
      "type": "function"
    },
    {
      "inputs": [
        {
          "internalType": "address",
          "name": "",
          "type": "address"
        },
        {
          "internalType": "uint256",
          "name": "",
          "type": "uint256"
        }
      ],
      "name": "hasPurchased",
      "outputs": [
        {
          "internalType": "bool",
          "name": "",
          "type": "bool"
        }
      ],
      "stateMutability": "view",
      "type": "function"
    },
    {
      "inputs": [
        {
          "internalType": "uint256",
          "name": "",
          "type": "uint256"
        }
      ],
      "name": "items",
      "outputs": [
        {
          "internalType": "string",
          "name": "name",
          "type": "string"
        },
        {
          "internalType": "uint256",
          "name": "price",
          "type": "uint256"
        },
        {
          "internalType": "bool",
          "name": "isActive",
          "type": "bool"
        },
        {
          "internalType": "bool",
          "name": "isConsumable",
          "type": "bool"
        }
      ],
      "stateMutability": "view",
      "type": "function"
    },
    {
      "inputs": [],
      "name": "oligToken",
      "outputs": [
        {
          "internalType": "contract ERC20Burnable",
          "name": "",
          "type": "address"
        }
      ],
      "stateMutability": "view",
      "type": "function"
    },
    {
      "inputs": [],
      "name": "owner",
      "outputs": [
        {
          "internalType": "address",
          "name": "",
          "type": "address"
        }
      ],
      "stateMutability": "view",
      "type": "function"
    },
    {
      "inputs": [],
      "name": "renounceOwnership",
      "outputs": [],
      "stateMutability": "nonpayable",
      "type": "function"
    },
    {
      "inputs": [],
      "name": "totalItems",
      "outputs": [
        {
          "internalType": "uint256",
          "name": "",
          "type": "uint256"
        }
      ],
      "stateMutability": "view",
      "type": "function"
    },
    {
      "inputs": [
        {
          "internalType": "address",
          "name": "newOwner",
          "type": "address"
        }
      ],
      "name": "transferOwnership",
      "outputs": [],
      "stateMutability": "nonpayable",
      "type": "function"
    }
  ],
  "bytecode": "0x60a060405234801561000f575f5ffd5b5060405161151938038061151983398181016040528101906100319190610212565b335f73ffffffffffffffffffffffffffffffffffffffff168173ffffffffffffffffffffffffffffffffffffffff16036100a2575f6040517f1e4fbdf7000000000000000000000000000000000000000000000000000000008152600401610099919061024c565b60405180910390fd5b6100b1816100f360201b60201c565b50600180819055508073ffffffffffffffffffffffffffffffffffffffff1660808173ffffffffffffffffffffffffffffffffffffffff168152505050610265565b5f5f5f9054906101000a900473ffffffffffffffffffffffffffffffffffffffff169050815f5f6101000a81548173ffffffffffffffffffffffffffffffffffffffff021916908373ffffffffffffffffffffffffffffffffffffffff1602179055508173ffffffffffffffffffffffffffffffffffffffff168173ffffffffffffffffffffffffffffffffffffffff167f8be0079c531659141344cd1fd0a4f28419497f9722a3daafe3b4186f6b6457e060405160405180910390a35050565b5f5ffd5b5f73ffffffffffffffffffffffffffffffffffffffff82169050919050565b5f6101e1826101b8565b9050919050565b6101f1816101d7565b81146101fb575f5ffd5b50565b5f8151905061020c816101e8565b92915050565b5f60208284031215610227576102266101b4565b5b5f610234848285016101fe565b91505092915050565b610246816101d7565b82525050565b5f60208201905061025f5f83018461023d565b92915050565b6080516112956102845f395f81816103e1015261064501526112955ff3fe608060405234801561000f575f5ffd5b5060043610610091575f3560e01c80638da5cb5b116100645780638da5cb5b14610109578063bfb231d214610127578063c6c142081461015a578063e7fb74c714610178578063f2fde38b1461019457610091565b806311923132146100955780632799276d146100c5578063715018a6146100e357806382655d06146100ed575b5f5ffd5b6100af60048036038101906100aa91906109ee565b6101b0565b6040516100bc9190610a46565b60405180910390f35b6100cd6101da565b6040516100da9190610a6e565b60405180910390f35b6100eb6101e0565b005b61010760048036038101906101029190610bed565b6101f3565b005b6101116102ed565b60405161011e9190610c68565b60405180910390f35b610141600480360381019061013c9190610c81565b610314565b6040516101519493929190610d0c565b60405180910390f35b6101626103df565b60405161016f9190610db1565b60405180910390f35b610192600480360381019061018d9190610c81565b610403565b005b6101ae60048036038101906101a99190610dca565b61072e565b005b6003602052815f5260405f20602052805f5260405f205f915091509054906101000a900460ff1681565b60045481565b6101e86107b2565b6101f15f610839565b565b6101fb6107b2565b60045f81548092919061020d90610e22565b9190505550604051806080016040528084815260200183815260200160011515815260200182151581525060025f60045481526020019081526020015f205f820151815f01908161025e919061105d565b50602082015181600101556040820151816002015f6101000a81548160ff02191690831515021790555060608201518160020160016101000a81548160ff0219169083151502179055509050507f0444434676a57f70f8479401c50fb4add3e31052f88f4b35e155b7759e5968e560045484846040516102e09392919061112c565b60405180910390a1505050565b5f5f5f9054906101000a900473ffffffffffffffffffffffffffffffffffffffff16905090565b6002602052805f5260405f205f91509050805f01805461033390610e96565b80601f016020809104026020016040519081016040528092919081815260200182805461035f90610e96565b80156103aa5780601f10610381576101008083540402835291602001916103aa565b820191905f5260205f20905b81548152906001019060200180831161038d57829003601f168201915b505050505090806001015490806002015f9054906101000a900460ff16908060020160019054906101000a900460ff16905084565b7f000000000000000000000000000000000000000000000000000000000000000081565b61040b6108fa565b5f60025f8381526020019081526020015f206040518060800160405290815f8201805461043790610e96565b80601f016020809104026020016040519081016040528092919081815260200182805461046390610e96565b80156104ae5780601f10610485576101008083540402835291602001916104ae565b820191905f5260205f20905b81548152906001019060200180831161049157829003601f168201915b5050505050815260200160018201548152602001600282015f9054906101000a900460ff161515151581526020016002820160019054906101000a900460ff1615151515815250509050806040015161053c576040517f08c379a0000000000000000000000000000000000000000000000000000000008152600401610533906111b2565b60405180910390fd5b80606001516106435760035f3373ffffffffffffffffffffffffffffffffffffffff1673ffffffffffffffffffffffffffffffffffffffff1681526020019081526020015f205f8381526020019081526020015f205f9054906101000a900460ff16156105de576040517f08c379a00000000000000000000000000000000000000000000000000000000081526004016105d59061121a565b60405180910390fd5b600160035f3373ffffffffffffffffffffffffffffffffffffffff1673ffffffffffffffffffffffffffffffffffffffff1681526020019081526020015f205f8481526020019081526020015f205f6101000a81548160ff0219169083151502179055505b7f000000000000000000000000000000000000000000000000000000000000000073ffffffffffffffffffffffffffffffffffffffff166379cc67903383602001516040518363ffffffff1660e01b81526004016106a2929190611238565b5f604051808303815f87803b1580156106b9575f5ffd5b505af11580156106cb573d5f5f3e3d5ffd5b50505050813373ffffffffffffffffffffffffffffffffffffffff167f1452773cf753d0d7c71ed9990f7c7e2bdde4a2d08d187b3647953877e400488d836020015160405161071a9190610a6e565b60405180910390a35061072b610940565b50565b6107366107b2565b5f73ffffffffffffffffffffffffffffffffffffffff168173ffffffffffffffffffffffffffffffffffffffff16036107a6575f6040517f1e4fbdf700000000000000000000000000000000000000000000000000000000815260040161079d9190610c68565b60405180910390fd5b6107af81610839565b50565b6107ba610949565b73ffffffffffffffffffffffffffffffffffffffff166107d86102ed565b73ffffffffffffffffffffffffffffffffffffffff1614610837576107fb610949565b6040517f118cdaa700000000000000000000000000000000000000000000000000000000815260040161082e9190610c68565b60405180910390fd5b565b5f5f5f9054906101000a900473ffffffffffffffffffffffffffffffffffffffff169050815f5f6101000a81548173ffffffffffffffffffffffffffffffffffffffff021916908373ffffffffffffffffffffffffffffffffffffffff1602179055508173ffffffffffffffffffffffffffffffffffffffff168173ffffffffffffffffffffffffffffffffffffffff167f8be0079c531659141344cd1fd0a4f28419497f9722a3daafe3b4186f6b6457e060405160405180910390a35050565b600260015403610936576040517f3ee5aeb500000000000000000000000000000000000000000000000000000000815260040160405180910390fd5b6002600181905550565b60018081905550565b5f33905090565b5f604051905090565b5f5ffd5b5f5ffd5b5f73ffffffffffffffffffffffffffffffffffffffff82169050919050565b5f61098a82610961565b9050919050565b61099a81610980565b81146109a4575f5ffd5b50565b5f813590506109b581610991565b92915050565b5f819050919050565b6109cd816109bb565b81146109d7575f5ffd5b50565b5f813590506109e8816109c4565b92915050565b5f5f60408385031215610a0457610a03610959565b5b5f610a11858286016109a7565b9250506020610a22858286016109da565b9150509250929050565b5f8115159050919050565b610a4081610a2c565b82525050565b5f602082019050610a595f830184610a37565b92915050565b610a68816109bb565b82525050565b5f602082019050610a815f830184610a5f565b92915050565b5f5ffd5b5f5ffd5b5f601f19601f8301169050919050565b7f4e487b71000000000000000000000000000000000000000000000000000000005f52604160045260245ffd5b610ad582610a8f565b810181811067ffffffffffffffff82111715610af457610af3610a9f565b5b80604052505050565b5f610b06610950565b9050610b128282610acc565b919050565b5f67ffffffffffffffff821115610b3157610b30610a9f565b5b610b3a82610a8f565b9050602081019050919050565b828183375f83830152505050565b5f610b67610b6284610b17565b610afd565b905082815260208101848484011115610b8357610b82610a8b565b5b610b8e848285610b47565b509392505050565b5f82601f830112610baa57610ba9610a87565b5b8135610bba848260208601610b55565b91505092915050565b610bcc81610a2c565b8114610bd6575f5ffd5b50565b5f81359050610be781610bc3565b92915050565b5f5f5f60608486031215610c0457610c03610959565b5b5f84013567ffffffffffffffff811115610c2157610c2061095d565b5b610c2d86828701610b96565b9350506020610c3e868287016109da565b9250506040610c4f86828701610bd9565b9150509250925092565b610c6281610980565b82525050565b5f602082019050610c7b5f830184610c59565b92915050565b5f60208284031215610c9657610c95610959565b5b5f610ca3848285016109da565b91505092915050565b5f81519050919050565b5f82825260208201905092915050565b8281835e5f83830152505050565b5f610cde82610cac565b610ce88185610cb6565b9350610cf8818560208601610cc6565b610d0181610a8f565b840191505092915050565b5f6080820190508181035f830152610d248187610cd4565b9050610d336020830186610a5f565b610d406040830185610a37565b610d4d6060830184610a37565b95945050505050565b5f819050919050565b5f610d79610d74610d6f84610961565b610d56565b610961565b9050919050565b5f610d8a82610d5f565b9050919050565b5f610d9b82610d80565b9050919050565b610dab81610d91565b82525050565b5f602082019050610dc45f830184610da2565b92915050565b5f60208284031215610ddf57610dde610959565b5b5f610dec848285016109a7565b91505092915050565b7f4e487b71000000000000000000000000000000000000000000000000000000005f52601160045260245ffd5b5f610e2c826109bb565b91507fffffffffffffffffffffffffffffffffffffffffffffffffffffffffffffffff8203610e5e57610e5d610df5565b5b600182019050919050565b7f4e487b71000000000000000000000000000000000000000000000000000000005f52602260045260245ffd5b5f6002820490506001821680610ead57607f821691505b602082108103610ec057610ebf610e69565b5b50919050565b5f819050815f5260205f209050919050565b5f6020601f8301049050919050565b5f82821b905092915050565b5f60088302610f227fffffffffffffffffffffffffffffffffffffffffffffffffffffffffffffffff82610ee7565b610f2c8683610ee7565b95508019841693508086168417925050509392505050565b5f610f5e610f59610f54846109bb565b610d56565b6109bb565b9050919050565b5f819050919050565b610f7783610f44565b610f8b610f8382610f65565b848454610ef3565b825550505050565b5f5f905090565b610fa2610f93565b610fad818484610f6e565b505050565b5b81811015610fd057610fc55f82610f9a565b600181019050610fb3565b5050565b601f82111561101557610fe681610ec6565b610fef84610ed8565b81016020851015610ffe578190505b61101261100a85610ed8565b830182610fb2565b50505b505050565b5f82821c905092915050565b5f6110355f198460080261101a565b1980831691505092915050565b5f61104d8383611026565b9150826002028217905092915050565b61106682610cac565b67ffffffffffffffff81111561107f5761107e610a9f565b5b6110898254610e96565b611094828285610fd4565b5f60209050601f8311600181146110c5575f84156110b3578287015190505b6110bd8582611042565b865550611124565b601f1984166110d386610ec6565b5f5b828110156110fa578489015182556001820191506020850194506020810190506110d5565b868310156111175784890151611113601f891682611026565b8355505b6001600288020188555050505b505050505050565b5f60608201905061113f5f830186610a5f565b81810360208301526111518185610cd4565b90506111606040830184610a5f565b949350505050565b7f4e6f7420616374697665000000000000000000000000000000000000000000005f82015250565b5f61119c600a83610cb6565b91506111a782611168565b602082019050919050565b5f6020820190508181035f8301526111c981611190565b9050919050565b7f4f776e65640000000000000000000000000000000000000000000000000000005f82015250565b5f611204600583610cb6565b915061120f826111d0565b602082019050919050565b5f6020820190508181035f830152611231816111f8565b9050919050565b5f60408201905061124b5f830185610c59565b6112586020830184610a5f565b939250505056fea2646970667358221220135b90d94c4b016d01e41a59afae75a49fd5b5effb76f9a1b120ea4b2b1b5abe64736f6c634300081c0033",
  "linkReferences": {},
  "deployedLinkReferences": {},
  "immutableReferences": {
    "8299": [
      {
        "length": 32,
        "start": 993
      },
      {
        "length": 32,
        "start": 1605
      }
    ]
  },
  "inputSourceName": "project/contracts/GameStore.sol",
  "buildInfoId": "solc-0_8_28-8ca2fbd7d495a08cb6599e93a042ca811ce21875"
}