{
  "_format": "hh3-artifact-1",
  "contractName": "OligarchyVoter",
  "sourceName": "contracts/OligarchyVoter.sol",
  "abi": [
    {
      "inputs": [
        {
          "internalType": "address",
          "name": "_mETH",
          "type": "address"
        },
        {
          "internalType": "address",
          "name": "_veOLIG",
          "type": "address"
        }
      ],
      "stateMutability": "nonpayable",
      "type": "constructor"
    },
    {
      "inputs": [
        {
          "internalType": "address",
          "name": "owner",
          "type": "address"
        }
      ],
      "name": "OwnableInvalidOwner",
      "type": "error"
    },
    {
      "inputs": [
        {
          "internalType": "address",
          "name": "account",
          "type": "address"
        }
      ],
      "name": "OwnableUnauthorizedAccount",
      "type": "error"
    },
    {
      "inputs": [],
      "name": "ReentrancyGuardReentrantCall",
      "type": "error"
    },
    {
      "inputs": [
        {
          "internalType": "address",
          "name": "token",
          "type": "address"
        }
      ],
      "name": "SafeERC20FailedOperation",
      "type": "error"
    },
    {
      "anonymous": false,
      "inputs": [
        {
          "indexed": true,
          "internalType": "address",
          "name": "voter",
          "type": "address"
        },
        {
          "indexed": false,
          "internalType": "uint256",
          "name": "amount",
          "type": "uint256"
        }
      ],
      "name": "BribeClaimed",
      "type": "event"
    },
    {
      "anonymous": false,
      "inputs": [
        {
          "indexed": true,
          "internalType": "uint256",
          "name": "epoch",
          "type": "uint256"
        },
        {
          "indexed": true,
          "internalType": "uint256",
          "name": "regionId",
          "type": "uint256"
        },
        {
          "indexed": false,
          "internalType": "uint256",
          "name": "amount",
          "type": "uint256"
        }
      ],
      "name": "BribeDeposited",
      "type": "event"
    },
    {
      "anonymous": false,
      "inputs": [
        {
          "indexed": true,
          "internalType": "uint256",
          "name": "epoch",
          "type": "uint256"
        },
        {
          "indexed": false,
          "internalType": "uint256",
          "name": "fromRegion",
          "type": "uint256"
        },
        {
          "indexed": false,
          "internalType": "uint256",
          "name": "toRegion",
          "type": "uint256"
        },
        {
          "indexed": false,
          "internalType": "uint256",
          "name": "amount",
          "type": "uint256"
        }
      ],
      "name": "BribeSeized",
      "type": "event"
    },
    {
      "anonymous": false,
      "inputs": [
        {
          "indexed": true,
          "internalType": "address",
          "name": "previousOwner",
          "type": "address"
        },
        {
          "indexed": true,
          "internalType": "address",
          "name": "newOwner",
          "type": "address"
        }
      ],
      "name": "OwnershipTransferred",
      "type": "event"
    },
    {
      "anonymous": false,
      "inputs": [
        {
          "indexed": true,
          "internalType": "address",
          "name": "voter",
          "type": "address"
        },
        {
          "indexed": true,
          "internalType": "uint256",
          "name": "regionId",
          "type": "uint256"
        },
        {
          "indexed": false,
          "internalType": "uint256",
          "name": "weight",
          "type": "uint256"
        }
      ],
      "name": "Voted",
      "type": "event"
    },
    {
      "inputs": [],
      "name": "CONTRACT_DEPLOYED",
      "outputs": [
        {
          "internalType": "uint256",
          "name": "",
          "type": "uint256"
        }
      ],
      "stateMutability": "view",
      "type": "function"
    },
    {
      "inputs": [],
      "name": "CONTRAT_DEPLOYED",
      "outputs": [
        {
          "internalType": "uint256",
          "name": "",
          "type": "uint256"
        }
      ],
      "stateMutability": "view",
      "type": "function"
    },
    {
      "inputs": [],
      "name": "EPOCH_DURATION",
      "outputs": [
        {
          "internalType": "uint256",
          "name": "",
          "type": "uint256"
        }
      ],
      "stateMutability": "view",
      "type": "function"
    },
    {
      "inputs": [
        {
          "internalType": "uint256",
          "name": "_epoch",
          "type": "uint256"
        },
        {
          "internalType": "uint256",
          "name": "_regionId",
          "type": "uint256"
        }
      ],
      "name": "claimBribe",
      "outputs": [],
      "stateMutability": "nonpayable",
      "type": "function"
    },
    {
      "inputs": [],
      "name": "currentEpochStart",
      "outputs": [
        {
          "internalType": "uint256",
          "name": "",
          "type": "uint256"
        }
      ],
      "stateMutability": "view",
      "type": "function"
    },
    {
      "inputs": [
        {
          "internalType": "uint256",
          "name": "_regionId",
          "type": "uint256"
        },
        {
          "internalType": "uint256",
          "name": "_amount",
          "type": "uint256"
        }
      ],
      "name": "depositBribe",
      "outputs": [],
      "stateMutability": "nonpayable",
      "type": "function"
    },
    {
      "inputs": [],
      "name": "getCurrentEpoch",
      "outputs": [
        {
          "internalType": "uint256",
          "name": "",
          "type": "uint256"
        }
      ],
      "stateMutability": "view",
      "type": "function"
    },
    {
      "inputs": [
        {
          "internalType": "uint256",
          "name": "_regionId",
          "type": "uint256"
        }
      ],
      "name": "getRegionWeight",
      "outputs": [
        {
          "internalType": "uint256",
          "name": "",
          "type": "uint256"
        }
      ],
      "stateMutability": "view",
      "type": "function"
    },
    {
      "inputs": [
        {
          "internalType": "uint256",
          "name": "",
          "type": "uint256"
        },
        {
          "internalType": "uint256",
          "name": "",
          "type": "uint256"
        },
        {
          "internalType": "address",
          "name": "",
          "type": "address"
        }
      ],
      "name": "hasVotedInRegion",
      "outputs": [
        {
          "internalType": "bool",
          "name": "",
          "type": "bool"
        }
      ],
      "stateMutability": "view",
      "type": "function"
    },
    {
      "inputs": [],
      "name": "mETH",
      "outputs": [
        {
          "internalType": "contract IERC20",
          "name": "",
          "type": "address"
        }
      ],
      "stateMutability": "view",
      "type": "function"
    },
    {
      "inputs": [],
      "name": "owner",
      "outputs": [
        {
          "internalType": "address",
          "name": "",
          "type": "address"
        }
      ],
      "stateMutability": "view",
      "type": "function"
    },
    {
      "inputs": [
        {
          "internalType": "uint256",
          "name": "",
          "type": "uint256"
        },
        {
          "internalType": "uint256",
          "name": "",
          "type": "uint256"
        }
      ],
      "name": "regionData",
      "outputs": [
        {
          "internalType": "uint256",
          "name": "totalVotes",
          "type": "uint256"
        },
        {
          "internalType": "uint256",
          "name": "bribeAmount",
          "type": "uint256"
        }
      ],
      "stateMutability": "view",
      "type": "function"
    },
    {
      "inputs": [],
      "name": "renounceOwnership",
      "outputs": [],
      "stateMutability": "nonpayable",
      "type": "function"
    },
    {
      "inputs": [
        {
          "internalType": "uint256",
          "name": "_fromRegion",
          "type": "uint256"
        },
        {
          "internalType": "uint256",
          "name": "_toRegion",
          "type": "uint256"
        },
        {
          "internalType": "uint256",
          "name": "_percent",
          "type": "uint256"
        }
      ],
      "name": "seizeBribe",
      "outputs": [],
      "stateMutability": "nonpayable",
      "type": "function"
    },
    {
      "inputs": [
        {
          "internalType": "address",
          "name": "_warTheater",
          "type": "address"
        }
      ],
      "name": "setWarTheater",
      "outputs": [],
      "stateMutability": "nonpayable",
      "type": "function"
    },
    {
      "inputs": [
        {
          "internalType": "address",
          "name": "newOwner",
          "type": "address"
        }
      ],
      "name": "transferOwnership",
      "outputs": [],
      "stateMutability": "nonpayable",
      "type": "function"
    },
    {
      "inputs": [
        {
          "internalType": "uint256",
          "name": "",
          "type": "uint256"
        },
        {
          "internalType": "address",
          "name": "",
          "type": "address"
        }
      ],
      "name": "userUsedPower",
      "outputs": [
        {
          "internalType": "uint256",
          "name": "",
          "type": "uint256"
        }
      ],
      "stateMutability": "view",
      "type": "function"
    },
    {
      "inputs": [
        {
          "internalType": "uint256",
          "name": "",
          "type": "uint256"
        },
        {
          "internalType": "uint256",
          "name": "",
          "type": "uint256"
        },
        {
          "internalType": "address",
          "name": "",
          "type": "address"
        }
      ],
      "name": "userVotes",
      "outputs": [
        {
          "internalType": "uint256",
          "name": "",
          "type": "uint256"
        }
      ],
      "stateMutability": "view",
      "type": "function"
    },
    {
      "inputs": [],
      "name": "veOLIG",
      "outputs": [
        {
          "internalType": "contract IVeOligarchy",
          "name": "",
          "type": "address"
        }
      ],
      "stateMutability": "view",
      "type": "function"
    },
    {
      "inputs": [
        {
          "internalType": "uint256",
          "name": "_regionId",
          "type": "uint256"
        }
      ],
      "name": "vote",
      "outputs": [],
      "stateMutability": "nonpayable",
      "type": "function"
    },
    {
      "inputs": [],
      "name": "warTheater",
      "outputs": [
        {
          "internalType": "address",
          "name": "",
          "type": "address"
        }
      ],
      "stateMutability": "view",
      "type": "function"
    }
  ],
  "bytecode": "0x60c060405234801561000f575f5ffd5b50604051611f68380380611f6883398181016040528101906100319190610270565b3360015f819055505f73ffffffffffffffffffffffffffffffffffffffff168173ffffffffffffffffffffffffffffffffffffffff16036100a9575f6040517f1e4fbdf70000000000000000000000000000000000000000000000000000000081526004016100a091906102bd565b60405180910390fd5b6100b88161014f60201b60201c565b508173ffffffffffffffffffffffffffffffffffffffff1660808173ffffffffffffffffffffffffffffffffffffffff16815250508073ffffffffffffffffffffffffffffffffffffffff1660a08173ffffffffffffffffffffffffffffffffffffffff168152505062093a8080426101319190610339565b61013b9190610369565b6004819055504260058190555050506103aa565b5f60015f9054906101000a900473ffffffffffffffffffffffffffffffffffffffff1690508160015f6101000a81548173ffffffffffffffffffffffffffffffffffffffff021916908373ffffffffffffffffffffffffffffffffffffffff1602179055508173ffffffffffffffffffffffffffffffffffffffff168173ffffffffffffffffffffffffffffffffffffffff167f8be0079c531659141344cd1fd0a4f28419497f9722a3daafe3b4186f6b6457e060405160405180910390a35050565b5f5ffd5b5f73ffffffffffffffffffffffffffffffffffffffff82169050919050565b5f61023f82610216565b9050919050565b61024f81610235565b8114610259575f5ffd5b50565b5f8151905061026a81610246565b92915050565b5f5f6040838503121561028657610285610212565b5b5f6102938582860161025c565b92505060206102a48582860161025c565b9150509250929050565b6102b781610235565b82525050565b5f6020820190506102d05f8301846102ae565b92915050565b5f819050919050565b7f4e487b71000000000000000000000000000000000000000000000000000000005f52601260045260245ffd5b7f4e487b71000000000000000000000000000000000000000000000000000000005f52601160045260245ffd5b5f610343826102d6565b915061034e836102d6565b92508261035e5761035d6102df565b5b828204905092915050565b5f610373826102d6565b915061037e836102d6565b925082820261038c816102d6565b915082820484148315176103a3576103a261030c565b5b5092915050565b60805160a051611b886103e05f395f818161040001526107dd01525f818161080101528181610d430152610e820152611b885ff3fe608060405234801561000f575f5ffd5b5060043610610135575f3560e01c80638da5cb5b116100b6578063c5a8e3811161007a578063c5a8e38114610319578063cfb318a11461034a578063d530904f1461037a578063d9cef58714610396578063ede193bf146103b2578063f2fde38b146103ce57610135565b80638da5cb5b1461028557806391c86265146102a3578063a70b9f0c146102bf578063b97dd9e2146102dd578063c1f653f1146102fb57610135565b80632a964041116100fd5780632a964041146101f15780635226ba6d1461020f5780635be12cb01461023f57806361a8c8c41461025d578063715018a61461027b57610135565b80630121b93f146101395780630f67148b146101555780631ac4011f146101855780631f4b5f25146101b557806329e84867146101d3575b5f5ffd5b610153600480360381019061014e9190611346565b6103ea565b005b61016f600480360381019061016a9190611346565b61075c565b60405161017c9190611380565b60405180910390f35b61019f600480360381019061019a91906113f3565b6107b0565b6040516101ac9190611380565b60405180910390f35b6101bd6107db565b6040516101ca919061149e565b60405180910390f35b6101db6107ff565b6040516101e891906114d7565b60405180910390f35b6101f9610823565b6040516102069190611380565b60405180910390f35b610229600480360381019061022491906113f3565b610829565b604051610236919061150a565b60405180910390f35b61024761085e565b6040516102549190611532565b60405180910390f35b610265610883565b6040516102729190611380565b60405180910390f35b610283610889565b005b61028d61089c565b60405161029a9190611532565b60405180910390f35b6102bd60048036038101906102b8919061154b565b6108c4565b005b6102c7610a5f565b6040516102d49190611380565b60405180910390f35b6102e5610a66565b6040516102f29190611380565b60405180910390f35b610303610a88565b6040516103109190611380565b60405180910390f35b610333600480360381019061032e919061159b565b610a8e565b6040516103419291906115d9565b60405180910390f35b610364600480360381019061035f9190611600565b610ab9565b6040516103719190611380565b60405180910390f35b610394600480360381019061038f919061159b565b610ad9565b005b6103b060048036038101906103ab919061163e565b610de5565b005b6103cc60048036038101906103c7919061159b565b610e30565b005b6103e860048036038101906103e3919061163e565b610f51565b005b6103f2610fd5565b5f6103fb610a66565b90505f7f000000000000000000000000000000000000000000000000000000000000000073ffffffffffffffffffffffffffffffffffffffff166370a08231336040518263ffffffff1660e01b81526004016104579190611532565b602060405180830381865afa158015610472573d5f5f3e3d5ffd5b505050506040513d601f19601f82011682018060405250810190610496919061167d565b90505f81116104da576040517f08c379a00000000000000000000000000000000000000000000000000000000081526004016104d190611702565b60405180910390fd5b60075f8381526020019081526020015f205f8481526020019081526020015f205f3373ffffffffffffffffffffffffffffffffffffffff1673ffffffffffffffffffffffffffffffffffffffff1681526020019081526020015f205f9054906101000a900460ff1615610582576040517f08c379a00000000000000000000000000000000000000000000000000000000081526004016105799061176a565b60405180910390fd5b8060085f8481526020019081526020015f205f3373ffffffffffffffffffffffffffffffffffffffff1673ffffffffffffffffffffffffffffffffffffffff1681526020019081526020015f205f8282546105dd91906117b5565b925050819055508060065f8481526020019081526020015f205f8581526020019081526020015f205f015f82825461061591906117b5565b92505081905550600160075f8481526020019081526020015f205f8581526020019081526020015f205f3373ffffffffffffffffffffffffffffffffffffffff1673ffffffffffffffffffffffffffffffffffffffff1681526020019081526020015f205f6101000a81548160ff0219169083151502179055508060095f8481526020019081526020015f205f8581526020019081526020015f205f3373ffffffffffffffffffffffffffffffffffffffff1673ffffffffffffffffffffffffffffffffffffffff1681526020019081526020015f205f8282546106f991906117b5565b92505081905550823373ffffffffffffffffffffffffffffffffffffffff167fea66f58e474bc09f580000e81f31b334d171db387d0c6098ba47bd897741679b836040516107479190611380565b60405180910390a35050610759611019565b50565b5f5f610766610a66565b90505f8103610778575f9150506107ab565b60065f60018361078891906117e8565b81526020019081526020015f205f8481526020019081526020015f205f01549150505b919050565b6009602052825f5260405f20602052815f5260405f20602052805f5260405f205f9250925050505481565b7f000000000000000000000000000000000000000000000000000000000000000081565b7f000000000000000000000000000000000000000000000000000000000000000081565b60035481565b6007602052825f5260405f20602052815f5260405f20602052805f5260405f205f92509250509054906101000a900460ff1681565b60025f9054906101000a900473ffffffffffffffffffffffffffffffffffffffff1681565b60045481565b610891611022565b61089a5f6110a9565b565b5f60015f9054906101000a900473ffffffffffffffffffffffffffffffffffffffff16905090565b60025f9054906101000a900473ffffffffffffffffffffffffffffffffffffffff1673ffffffffffffffffffffffffffffffffffffffff163373ffffffffffffffffffffffffffffffffffffffff1614610953576040517f08c379a000000000000000000000000000000000000000000000000000000000815260040161094a90611865565b60405180910390fd5b5f61095c610a66565b90505f60065f8381526020019081526020015f205f8681526020019081526020015f206001015490505f811115610a58575f6064848361099c9190611883565b6109a691906118f1565b90508060065f8581526020019081526020015f205f8881526020019081526020015f206001015f8282546109da91906117e8565b925050819055508060065f8581526020019081526020015f205f8781526020019081526020015f206001015f828254610a1391906117b5565b92505081905550827fe2bb5de4553e7fb4692199df6281152f9618cb2c17759a6eaaef228ea49ad7ab878784604051610a4e93929190611921565b60405180910390a2505b5050505050565b62093a8081565b5f62093a8060035442610a7991906117e8565b610a8391906118f1565b905090565b60055481565b6006602052815f5260405f20602052805f5260405f205f9150915050805f0154908060010154905082565b6008602052815f5260405f20602052805f5260405f205f91509150505481565b610ae1610fd5565b610ae9610a66565b8210610b2a576040517f08c379a0000000000000000000000000000000000000000000000000000000008152600401610b21906119a0565b60405180910390fd5b60075f8381526020019081526020015f205f8281526020019081526020015f205f3373ffffffffffffffffffffffffffffffffffffffff1673ffffffffffffffffffffffffffffffffffffffff1681526020019081526020015f205f9054906101000a900460ff16610bd1576040517f08c379a0000000000000000000000000000000000000000000000000000000008152600401610bc890611a08565b60405180910390fd5b5f60095f8481526020019081526020015f205f8381526020019081526020015f205f3373ffffffffffffffffffffffffffffffffffffffff1673ffffffffffffffffffffffffffffffffffffffff1681526020019081526020015f205490505f8111610c72576040517f08c379a0000000000000000000000000000000000000000000000000000000008152600401610c6990611a70565b60405180910390fd5b5f60065f8581526020019081526020015f205f8481526020019081526020015f206040518060400160405290815f820154815260200160018201548152505090505f815f0151826020015184610cc89190611883565b610cd291906118f1565b90505f60095f8781526020019081526020015f205f8681526020019081526020015f205f3373ffffffffffffffffffffffffffffffffffffffff1673ffffffffffffffffffffffffffffffffffffffff1681526020019081526020015f20819055505f811115610dd657610d8733827f000000000000000000000000000000000000000000000000000000000000000073ffffffffffffffffffffffffffffffffffffffff1661116c9092919063ffffffff16565b3373ffffffffffffffffffffffffffffffffffffffff167fd7b05cdb66c570730a1d46b848da7667f00c34987279d4db7f9e7049c9eb17d082604051610dcd9190611380565b60405180910390a25b505050610de1611019565b5050565b610ded611022565b8060025f6101000a81548173ffffffffffffffffffffffffffffffffffffffff021916908373ffffffffffffffffffffffffffffffffffffffff16021790555050565b610e38610fd5565b5f8111610e7a576040517f08c379a0000000000000000000000000000000000000000000000000000000008152600401610e7190611ad8565b60405180910390fd5b610ec73330837f000000000000000000000000000000000000000000000000000000000000000073ffffffffffffffffffffffffffffffffffffffff166111eb909392919063ffffffff16565b5f610ed0610a66565b90508160065f8381526020019081526020015f205f8581526020019081526020015f206001015f828254610f0491906117b5565b9250508190555082817f265e31995d948b49c781d09e0ba0b7bfcb1a993817fb3254be81fe208c5048a884604051610f3c9190611380565b60405180910390a350610f4d611019565b5050565b610f59611022565b5f73ffffffffffffffffffffffffffffffffffffffff168173ffffffffffffffffffffffffffffffffffffffff1603610fc9575f6040517f1e4fbdf7000000000000000000000000000000000000000000000000000000008152600401610fc09190611532565b60405180910390fd5b610fd2816110a9565b50565b60025f5403611010576040517f3ee5aeb500000000000000000000000000000000000000000000000000000000815260040160405180910390fd5b60025f81905550565b60015f81905550565b61102a61126d565b73ffffffffffffffffffffffffffffffffffffffff1661104861089c565b73ffffffffffffffffffffffffffffffffffffffff16146110a75761106b61126d565b6040517f118cdaa700000000000000000000000000000000000000000000000000000000815260040161109e9190611532565b60405180910390fd5b565b5f60015f9054906101000a900473ffffffffffffffffffffffffffffffffffffffff1690508160015f6101000a81548173ffffffffffffffffffffffffffffffffffffffff021916908373ffffffffffffffffffffffffffffffffffffffff1602179055508173ffffffffffffffffffffffffffffffffffffffff168173ffffffffffffffffffffffffffffffffffffffff167f8be0079c531659141344cd1fd0a4f28419497f9722a3daafe3b4186f6b6457e060405160405180910390a35050565b6111e6838473ffffffffffffffffffffffffffffffffffffffff1663a9059cbb858560405160240161119f929190611af6565b604051602081830303815290604052915060e01b6020820180517bffffffffffffffffffffffffffffffffffffffffffffffffffffffff8381831617835250505050611274565b505050565b611267848573ffffffffffffffffffffffffffffffffffffffff166323b872dd86868660405160240161122093929190611b1d565b604051602081830303815290604052915060e01b6020820180517bffffffffffffffffffffffffffffffffffffffffffffffffffffffff8381831617835250505050611274565b50505050565b5f33905090565b5f5f60205f8451602086015f885af180611293576040513d5f823e3d81fd5b3d92505f519150505f82146112ac5760018114156112c7565b5f8473ffffffffffffffffffffffffffffffffffffffff163b145b1561130957836040517f5274afe70000000000000000000000000000000000000000000000000000000081526004016113009190611532565b60405180910390fd5b50505050565b5f5ffd5b5f819050919050565b61132581611313565b811461132f575f5ffd5b50565b5f813590506113408161131c565b92915050565b5f6020828403121561135b5761135a61130f565b5b5f61136884828501611332565b91505092915050565b61137a81611313565b82525050565b5f6020820190506113935f830184611371565b92915050565b5f73ffffffffffffffffffffffffffffffffffffffff82169050919050565b5f6113c282611399565b9050919050565b6113d2816113b8565b81146113dc575f5ffd5b50565b5f813590506113ed816113c9565b92915050565b5f5f5f6060848603121561140a5761140961130f565b5b5f61141786828701611332565b935050602061142886828701611332565b9250506040611439868287016113df565b9150509250925092565b5f819050919050565b5f61146661146161145c84611399565b611443565b611399565b9050919050565b5f6114778261144c565b9050919050565b5f6114888261146d565b9050919050565b6114988161147e565b82525050565b5f6020820190506114b15f83018461148f565b92915050565b5f6114c18261146d565b9050919050565b6114d1816114b7565b82525050565b5f6020820190506114ea5f8301846114c8565b92915050565b5f8115159050919050565b611504816114f0565b82525050565b5f60208201905061151d5f8301846114fb565b92915050565b61152c816113b8565b82525050565b5f6020820190506115455f830184611523565b92915050565b5f5f5f606084860312156115625761156161130f565b5b5f61156f86828701611332565b935050602061158086828701611332565b925050604061159186828701611332565b9150509250925092565b5f5f604083850312156115b1576115b061130f565b5b5f6115be85828601611332565b92505060206115cf85828601611332565b9150509250929050565b5f6040820190506115ec5f830185611371565b6115f96020830184611371565b9392505050565b5f5f604083850312156116165761161561130f565b5b5f61162385828601611332565b9250506020611634858286016113df565b9150509250929050565b5f602082840312156116535761165261130f565b5b5f611660848285016113df565b91505092915050565b5f815190506116778161131c565b92915050565b5f602082840312156116925761169161130f565b5b5f61169f84828501611669565b91505092915050565b5f82825260208201905092915050565b7f4e6f20766f74696e6720706f77657200000000000000000000000000000000005f82015250565b5f6116ec600f836116a8565b91506116f7826116b8565b602082019050919050565b5f6020820190508181035f830152611719816116e0565b9050919050565b7f416c726561647920766f746564206865726500000000000000000000000000005f82015250565b5f6117546012836116a8565b915061175f82611720565b602082019050919050565b5f6020820190508181035f83015261178181611748565b9050919050565b7f4e487b71000000000000000000000000000000000000000000000000000000005f52601160045260245ffd5b5f6117bf82611313565b91506117ca83611313565b92508282019050808211156117e2576117e1611788565b5b92915050565b5f6117f282611313565b91506117fd83611313565b925082820390508181111561181557611814611788565b5b92915050565b7f4f6e6c79205761722054686561746572000000000000000000000000000000005f82015250565b5f61184f6010836116a8565b915061185a8261181b565b602082019050919050565b5f6020820190508181035f83015261187c81611843565b9050919050565b5f61188d82611313565b915061189883611313565b92508282026118a681611313565b915082820484148315176118bd576118bc611788565b5b5092915050565b7f4e487b71000000000000000000000000000000000000000000000000000000005f52601260045260245ffd5b5f6118fb82611313565b915061190683611313565b925082611916576119156118c4565b5b828204905092915050565b5f6060820190506119345f830186611371565b6119416020830185611371565b61194e6040830184611371565b949350505050565b7f45706f6368206e6f742066696e697368656400000000000000000000000000005f82015250565b5f61198a6012836116a8565b915061199582611956565b602082019050919050565b5f6020820190508181035f8301526119b78161197e565b9050919050565b7f446964206e6f7420766f746500000000000000000000000000000000000000005f82015250565b5f6119f2600c836116a8565b91506119fd826119be565b602082019050919050565b5f6020820190508181035f830152611a1f816119e6565b9050919050565b7f4e6f2077656967687400000000000000000000000000000000000000000000005f82015250565b5f611a5a6009836116a8565b9150611a6582611a26565b602082019050919050565b5f6020820190508181035f830152611a8781611a4e565b9050919050565b7f5a65726f20616d6f756e740000000000000000000000000000000000000000005f82015250565b5f611ac2600b836116a8565b9150611acd82611a8e565b602082019050919050565b5f6020820190508181035f830152611aef81611ab6565b9050919050565b5f604082019050611b095f830185611523565b611b166020830184611371565b9392505050565b5f606082019050611b305f830186611523565b611b3d6020830185611523565b611b4a6040830184611371565b94935050505056fea26469706673582212206bf2d9d8bd06ce511d5ce0b2f69ba0838bd36c72cea8672562260af674cf327164736f6c634300081c0033",
  "linkReferences": {},
  "deployedLinkReferences": {},
  "immutableReferences": {
    "8584": [
      {
        "length": 32,
        "start": 2049
      },
      {
        "length": 32,
        "start": 3395
      },
      {
        "length": 32,
        "start": 3714
      }
    ],
    "8587": [
      {
        "length": 32,
        "start": 1024
      },
      {
        "length": 32,
        "start": 2013
      }
    ]
  },
  "inputSourceName": "project/contracts/OligarchyVoter.sol",
  "buildInfoId": "solc-0_8_28-8ca2fbd7d495a08cb6599e93a042ca811ce21875"
}