{
  "_format": "hh3-artifact-1",
  "contractName": "RegionFarmDynamic",
  "sourceName": "contracts/RegionFarmDynamic.sol",
  "abi": [
    {
      "inputs": [
        {
          "internalType": "address",
          "name": "_oligToken",
          "type": "address"
        },
        {
          "internalType": "address",
          "name": "_mETH",
          "type": "address"
        },
        {
          "internalType": "address",
          "name": "_voter",
          "type": "address"
        },
        {
          "internalType": "uint256",
          "name": "_baseEmissionRate",
          "type": "uint256"
        }
      ],
      "stateMutability": "nonpayable",
      "type": "constructor"
    },
    {
      "inputs": [
        {
          "internalType": "address",
          "name": "owner",
          "type": "address"
        }
      ],
      "name": "OwnableInvalidOwner",
      "type": "error"
    },
    {
      "inputs": [
        {
          "internalType": "address",
          "name": "account",
          "type": "address"
        }
      ],
      "name": "OwnableUnauthorizedAccount",
      "type": "error"
    },
    {
      "inputs": [],
      "name": "ReentrancyGuardReentrantCall",
      "type": "error"
    },
    {
      "inputs": [
        {
          "internalType": "address",
          "name": "token",
          "type": "address"
        }
      ],
      "name": "SafeERC20FailedOperation",
      "type": "error"
    },
    {
      "anonymous": false,
      "inputs": [
        {
          "indexed": true,
          "internalType": "address",
          "name": "user",
          "type": "address"
        },
        {
          "indexed": true,
          "internalType": "uint256",
          "name": "pid",
          "type": "uint256"
        },
        {
          "indexed": false,
          "internalType": "uint256",
          "name": "amount",
          "type": "uint256"
        }
      ],
      "name": "Deposit",
      "type": "event"
    },
    {
      "anonymous": false,
      "inputs": [
        {
          "indexed": true,
          "internalType": "address",
          "name": "previousOwner",
          "type": "address"
        },
        {
          "indexed": true,
          "internalType": "address",
          "name": "newOwner",
          "type": "address"
        }
      ],
      "name": "OwnershipTransferred",
      "type": "event"
    },
    {
      "anonymous": false,
      "inputs": [
        {
          "indexed": true,
          "internalType": "address",
          "name": "user",
          "type": "address"
        },
        {
          "indexed": true,
          "internalType": "uint256",
          "name": "pid",
          "type": "uint256"
        },
        {
          "indexed": false,
          "internalType": "uint256",
          "name": "amount",
          "type": "uint256"
        },
        {
          "indexed": false,
          "internalType": "uint256",
          "name": "tax",
          "type": "uint256"
        }
      ],
      "name": "Withdraw",
      "type": "event"
    },
    {
      "inputs": [],
      "name": "DENOMINATOR",
      "outputs": [
        {
          "internalType": "uint256",
          "name": "",
          "type": "uint256"
        }
      ],
      "stateMutability": "view",
      "type": "function"
    },
    {
      "inputs": [],
      "name": "EXIT_TAX_RATE",
      "outputs": [
        {
          "internalType": "uint256",
          "name": "",
          "type": "uint256"
        }
      ],
      "stateMutability": "view",
      "type": "function"
    },
    {
      "inputs": [
        {
          "internalType": "uint256",
          "name": "",
          "type": "uint256"
        }
      ],
      "name": "activeRegions",
      "outputs": [
        {
          "internalType": "uint256",
          "name": "",
          "type": "uint256"
        }
      ],
      "stateMutability": "view",
      "type": "function"
    },
    {
      "inputs": [
        {
          "internalType": "uint256",
          "name": "_regionId",
          "type": "uint256"
        },
        {
          "internalType": "uint256",
          "name": "_initialAllocPoint",
          "type": "uint256"
        }
      ],
      "name": "addRegion",
      "outputs": [],
      "stateMutability": "nonpayable",
      "type": "function"
    },
    {
      "inputs": [],
      "name": "baseEmissionRate",
      "outputs": [
        {
          "internalType": "uint256",
          "name": "",
          "type": "uint256"
        }
      ],
      "stateMutability": "view",
      "type": "function"
    },
    {
      "inputs": [
        {
          "internalType": "uint256",
          "name": "_pid",
          "type": "uint256"
        },
        {
          "internalType": "uint256",
          "name": "_amount",
          "type": "uint256"
        }
      ],
      "name": "deposit",
      "outputs": [],
      "stateMutability": "nonpayable",
      "type": "function"
    },
    {
      "inputs": [],
      "name": "mETH",
      "outputs": [
        {
          "internalType": "contract IERC20",
          "name": "",
          "type": "address"
        }
      ],
      "stateMutability": "view",
      "type": "function"
    },
    {
      "inputs": [],
      "name": "oligToken",
      "outputs": [
        {
          "internalType": "contract IMintableToken",
          "name": "",
          "type": "address"
        }
      ],
      "stateMutability": "view",
      "type": "function"
    },
    {
      "inputs": [],
      "name": "owner",
      "outputs": [
        {
          "internalType": "address",
          "name": "",
          "type": "address"
        }
      ],
      "stateMutability": "view",
      "type": "function"
    },
    {
      "inputs": [
        {
          "internalType": "uint256",
          "name": "",
          "type": "uint256"
        }
      ],
      "name": "poolInfo",
      "outputs": [
        {
          "internalType": "uint256",
          "name": "allocPoint",
          "type": "uint256"
        },
        {
          "internalType": "uint256",
          "name": "lastRewardTime",
          "type": "uint256"
        },
        {
          "internalType": "uint256",
          "name": "accOligPerShare",
          "type": "uint256"
        },
        {
          "internalType": "uint256",
          "name": "totalStaked",
          "type": "uint256"
        }
      ],
      "stateMutability": "view",
      "type": "function"
    },
    {
      "inputs": [],
      "name": "renounceOwnership",
      "outputs": [],
      "stateMutability": "nonpayable",
      "type": "function"
    },
    {
      "inputs": [],
      "name": "syncVotes",
      "outputs": [],
      "stateMutability": "nonpayable",
      "type": "function"
    },
    {
      "inputs": [],
      "name": "totalAllocPoint",
      "outputs": [
        {
          "internalType": "uint256",
          "name": "",
          "type": "uint256"
        }
      ],
      "stateMutability": "view",
      "type": "function"
    },
    {
      "inputs": [
        {
          "internalType": "address",
          "name": "newOwner",
          "type": "address"
        }
      ],
      "name": "transferOwnership",
      "outputs": [],
      "stateMutability": "nonpayable",
      "type": "function"
    },
    {
      "inputs": [
        {
          "internalType": "uint256",
          "name": "_pid",
          "type": "uint256"
        }
      ],
      "name": "updatePool",
      "outputs": [],
      "stateMutability": "nonpayable",
      "type": "function"
    },
    {
      "inputs": [
        {
          "internalType": "uint256",
          "name": "",
          "type": "uint256"
        },
        {
          "internalType": "address",
          "name": "",
          "type": "address"
        }
      ],
      "name": "userInfo",
      "outputs": [
        {
          "internalType": "uint256",
          "name": "amount",
          "type": "uint256"
        },
        {
          "internalType": "uint256",
          "name": "rewardDebt",
          "type": "uint256"
        }
      ],
      "stateMutability": "view",
      "type": "function"
    },
    {
      "inputs": [],
      "name": "voter",
      "outputs": [
        {
          "internalType": "contract IOligarchyVoter",
          "name": "",
          "type": "address"
        }
      ],
      "stateMutability": "view",
      "type": "function"
    },
    {
      "inputs": [
        {
          "internalType": "uint256",
          "name": "_pid",
          "type": "uint256"
        },
        {
          "internalType": "uint256",
          "name": "_amount",
          "type": "uint256"
        }
      ],
      "name": "withdraw",
      "outputs": [],
      "stateMutability": "nonpayable",
      "type": "function"
    }
  ],
  "bytecode": "0x60c06040525f600655348015610013575f5ffd5b50604051611c50380380611c50833981810160405281019061003591906102c7565b335f73ffffffffffffffffffffffffffffffffffffffff168173ffffffffffffffffffffffffffffffffffffffff16036100a6575f6040517f1e4fbdf700000000000000000000000000000000000000000000000000000000815260040161009d919061033a565b60405180910390fd5b6100b58161017560201b60201c565b50600180819055508373ffffffffffffffffffffffffffffffffffffffff1660808173ffffffffffffffffffffffffffffffffffffffff16815250508273ffffffffffffffffffffffffffffffffffffffff1660a08173ffffffffffffffffffffffffffffffffffffffff16815250508160025f6101000a81548173ffffffffffffffffffffffffffffffffffffffff021916908373ffffffffffffffffffffffffffffffffffffffff1602179055508060038190555050505050610353565b5f5f5f9054906101000a900473ffffffffffffffffffffffffffffffffffffffff169050815f5f6101000a81548173ffffffffffffffffffffffffffffffffffffffff021916908373ffffffffffffffffffffffffffffffffffffffff1602179055508173ffffffffffffffffffffffffffffffffffffffff168173ffffffffffffffffffffffffffffffffffffffff167f8be0079c531659141344cd1fd0a4f28419497f9722a3daafe3b4186f6b6457e060405160405180910390a35050565b5f5ffd5b5f73ffffffffffffffffffffffffffffffffffffffff82169050919050565b5f6102638261023a565b9050919050565b61027381610259565b811461027d575f5ffd5b50565b5f8151905061028e8161026a565b92915050565b5f819050919050565b6102a681610294565b81146102b0575f5ffd5b50565b5f815190506102c18161029d565b92915050565b5f5f5f5f608085870312156102df576102de610236565b5b5f6102ec87828801610280565b94505060206102fd87828801610280565b935050604061030e87828801610280565b925050606061031f878288016102b3565b91505092959194509250565b61033481610259565b82525050565b5f60208201905061034d5f83018461032b565b92915050565b60805160a0516118ab6103a55f395f818161037001528181610502015281816105500152610bf601525f818161082001528181610a9901528181610dca01528181610e6c0152610f0d01526118ab5ff3fe608060405234801561000f575f5ffd5b5060043610610114575f3560e01c80638da5cb5b116100a0578063c6c142081161006f578063c6c14208146102ac578063cbb4c22d146102ca578063e2bbb158146102e6578063f2fde38b14610302578063f317ca3d1461031e57610114565b80638da5cb5b1461020f578063918f86741461022d57806393f1a40b1461024b578063b219bbcd1461027c57610114565b806346c96aac116100e757806346c96aac146101a3578063482b5417146101c157806351eb05a6146101df5780635db531a1146101fb578063715018a61461020557610114565b80631526fe271461011857806317caf6f11461014b57806329e8486714610169578063441a3e7014610187575b5f5ffd5b610132600480360381019061012d91906112d8565b61033c565b6040516101429493929190611312565b60405180910390f35b610153610368565b6040516101609190611355565b60405180910390f35b61017161036e565b60405161017e91906113e8565b60405180910390f35b6101a1600480360381019061019c9190611401565b610392565b005b6101ab610723565b6040516101b8919061145f565b60405180910390f35b6101c9610748565b6040516101d69190611355565b60405180910390f35b6101f960048036038101906101f491906112d8565b61074d565b005b6102036108f1565b005b61020d610a0c565b005b610217610a1f565b6040516102249190611498565b60405180910390f35b610235610a46565b6040516102429190611355565b60405180910390f35b610265600480360381019061026091906114db565b610a4c565b604051610273929190611519565b60405180910390f35b610296600480360381019061029191906112d8565b610a77565b6040516102a39190611355565b60405180910390f35b6102b4610a97565b6040516102c19190611560565b60405180910390f35b6102e460048036038101906102df9190611401565b610abb565b005b61030060048036038101906102fb9190611401565b610b1d565b005b61031c60048036038101906103179190611579565b610cf7565b005b610326610d7b565b6040516103339190611355565b60405180910390f35b6004602052805f5260405f205f91509050805f0154908060010154908060020154908060030154905084565b60065481565b7f000000000000000000000000000000000000000000000000000000000000000081565b61039a610d81565b5f60045f8481526020019081526020015f2090505f60055f8581526020019081526020015f205f3373ffffffffffffffffffffffffffffffffffffffff1673ffffffffffffffffffffffffffffffffffffffff1681526020019081526020015f20905082815f01541015610443576040517f08c379a000000000000000000000000000000000000000000000000000000000815260040161043a906115fe565b60405180910390fd5b61044c8461074d565b5f816001015464e8d4a510008460020154845f015461046b9190611649565b61047591906116b7565b61047f91906116e7565b90505f811115610494576104933382610dc7565b5b5f8411156106e95783825f015f8282546104ae91906116e7565b9250508190555083836003015f8282546104c891906116e7565b925050819055505f6127106001866104e09190611649565b6104ea91906116b7565b90505f81866104f991906116e7565b905061054633827f000000000000000000000000000000000000000000000000000000000000000073ffffffffffffffffffffffffffffffffffffffff16610fad9092919063ffffffff16565b5f821115610695577f000000000000000000000000000000000000000000000000000000000000000073ffffffffffffffffffffffffffffffffffffffff1663095ea7b360025f9054906101000a900473ffffffffffffffffffffffffffffffffffffffff16846040518363ffffffff1660e01b81526004016105ca92919061171a565b6020604051808303815f875af11580156105e6573d5f5f3e3d5ffd5b505050506040513d601f19601f8201168201806040525081019061060a9190611776565b5060025f9054906101000a900473ffffffffffffffffffffffffffffffffffffffff1673ffffffffffffffffffffffffffffffffffffffff1663ede193bf88846040518363ffffffff1660e01b8152600401610667929190611519565b5f604051808303815f87803b15801561067e575f5ffd5b505af1158015610690573d5f5f3e3d5ffd5b505050505b863373ffffffffffffffffffffffffffffffffffffffff167f02f25270a4d87bea75db541cdfe559334a275b4a233520ed6c0a2429667cca9483856040516106de929190611519565b60405180910390a350505b64e8d4a510008360020154835f01546107029190611649565b61070c91906116b7565b826001018190555050505061071f61102c565b5050565b60025f9054906101000a900473ffffffffffffffffffffffffffffffffffffffff1681565b600181565b5f60045f8381526020019081526020015f2090508060010154421161077257506108ee565b5f81600301540361078c57428160010181905550506108ee565b5f81600101544261079d91906116e7565b90505f64e8d4a5100090505f60065411156107d65760065464e8d4a51000845f01546107c99190611649565b6107d391906116b7565b90505b5f69d3c21bcecceda1000000826003548587600301546107f69190611649565b6108009190611649565b61080a9190611649565b61081491906116b7565b90505f8111156108e0577f000000000000000000000000000000000000000000000000000000000000000073ffffffffffffffffffffffffffffffffffffffff166340c10f1930836040518363ffffffff1660e01b815260040161087992919061171a565b5f604051808303815f87803b158015610890575f5ffd5b505af11580156108a2573d5f5f3e3d5ffd5b50505050836003015464e8d4a51000826108bc9190611649565b6108c691906116b7565b846002015f8282546108d891906117a1565b925050819055505b428460010181905550505050505b50565b5f5f90505f5f90505b600780549050811015610a01575f6007828154811061091c5761091b6117d4565b5b905f5260205f20015490506109308161074d565b5f60025f9054906101000a900473ffffffffffffffffffffffffffffffffffffffff1673ffffffffffffffffffffffffffffffffffffffff16630f67148b836040518263ffffffff1660e01b815260040161098b9190611355565b602060405180830381865afa1580156109a6573d5f5f3e3d5ffd5b505050506040513d601f19601f820116820180604052508101906109ca9190611815565b90508060045f8481526020019081526020015f205f018190555080846109f091906117a1565b9350505080806001019150506108fa565b508060068190555050565b610a14611035565b610a1d5f6110bc565b565b5f5f5f9054906101000a900473ffffffffffffffffffffffffffffffffffffffff16905090565b61271081565b6005602052815f5260405f20602052805f5260405f205f9150915050805f0154908060010154905082565b60078181548110610a86575f80fd5b905f5260205f20015f915090505481565b7f000000000000000000000000000000000000000000000000000000000000000081565b610ac3611035565b600782908060018154018082558091505060019003905f5260205f20015f90919091909150558060045f8481526020019081526020015f205f01819055508060065f828254610b1291906117a1565b925050819055505050565b610b25610d81565b5f60045f8481526020019081526020015f2090505f60055f8581526020019081526020015f205f3373ffffffffffffffffffffffffffffffffffffffff1673ffffffffffffffffffffffffffffffffffffffff1681526020019081526020015f209050610b918461074d565b5f815f01541115610be6575f816001015464e8d4a510008460020154845f0154610bbb9190611649565b610bc591906116b7565b610bcf91906116e7565b90505f811115610be457610be33382610dc7565b5b505b5f831115610c6f57610c3b3330857f000000000000000000000000000000000000000000000000000000000000000073ffffffffffffffffffffffffffffffffffffffff1661117d909392919063ffffffff16565b82815f015f828254610c4d91906117a1565b9250508190555082826003015f828254610c6791906117a1565b925050819055505b64e8d4a510008260020154825f0154610c889190611649565b610c9291906116b7565b8160010181905550833373ffffffffffffffffffffffffffffffffffffffff167f90890809c654f11d6e72a28fa60149770a0d11ec6c92319d6ceb2bb0a4ea1a1585604051610ce19190611355565b60405180910390a35050610cf361102c565b5050565b610cff611035565b5f73ffffffffffffffffffffffffffffffffffffffff168173ffffffffffffffffffffffffffffffffffffffff1603610d6f575f6040517f1e4fbdf7000000000000000000000000000000000000000000000000000000008152600401610d669190611498565b60405180910390fd5b610d78816110bc565b50565b60035481565b600260015403610dbd576040517f3ee5aeb500000000000000000000000000000000000000000000000000000000815260040160405180910390fd5b6002600181905550565b5f7f000000000000000000000000000000000000000000000000000000000000000073ffffffffffffffffffffffffffffffffffffffff166370a08231306040518263ffffffff1660e01b8152600401610e219190611498565b602060405180830381865afa158015610e3c573d5f5f3e3d5ffd5b505050506040513d601f19601f82011682018060405250810190610e609190611815565b905080821115610f0b577f000000000000000000000000000000000000000000000000000000000000000073ffffffffffffffffffffffffffffffffffffffff1663a9059cbb84836040518363ffffffff1660e01b8152600401610ec592919061171a565b6020604051808303815f875af1158015610ee1573d5f5f3e3d5ffd5b505050506040513d601f19601f82011682018060405250810190610f059190611776565b50610fa8565b7f000000000000000000000000000000000000000000000000000000000000000073ffffffffffffffffffffffffffffffffffffffff1663a9059cbb84846040518363ffffffff1660e01b8152600401610f6692919061171a565b6020604051808303815f875af1158015610f82573d5f5f3e3d5ffd5b505050506040513d601f19601f82011682018060405250810190610fa69190611776565b505b505050565b611027838473ffffffffffffffffffffffffffffffffffffffff1663a9059cbb8585604051602401610fe092919061171a565b604051602081830303815290604052915060e01b6020820180517bffffffffffffffffffffffffffffffffffffffffffffffffffffffff83818316178352505050506111ff565b505050565b60018081905550565b61103d61129a565b73ffffffffffffffffffffffffffffffffffffffff1661105b610a1f565b73ffffffffffffffffffffffffffffffffffffffff16146110ba5761107e61129a565b6040517f118cdaa70000000000000000000000000000000000000000000000000000000081526004016110b19190611498565b60405180910390fd5b565b5f5f5f9054906101000a900473ffffffffffffffffffffffffffffffffffffffff169050815f5f6101000a81548173ffffffffffffffffffffffffffffffffffffffff021916908373ffffffffffffffffffffffffffffffffffffffff1602179055508173ffffffffffffffffffffffffffffffffffffffff168173ffffffffffffffffffffffffffffffffffffffff167f8be0079c531659141344cd1fd0a4f28419497f9722a3daafe3b4186f6b6457e060405160405180910390a35050565b6111f9848573ffffffffffffffffffffffffffffffffffffffff166323b872dd8686866040516024016111b293929190611840565b604051602081830303815290604052915060e01b6020820180517bffffffffffffffffffffffffffffffffffffffffffffffffffffffff83818316178352505050506111ff565b50505050565b5f5f60205f8451602086015f885af18061121e576040513d5f823e3d81fd5b3d92505f519150505f8214611237576001811415611252565b5f8473ffffffffffffffffffffffffffffffffffffffff163b145b1561129457836040517f5274afe700000000000000000000000000000000000000000000000000000000815260040161128b9190611498565b60405180910390fd5b50505050565b5f33905090565b5f5ffd5b5f819050919050565b6112b7816112a5565b81146112c1575f5ffd5b50565b5f813590506112d2816112ae565b92915050565b5f602082840312156112ed576112ec6112a1565b5b5f6112fa848285016112c4565b91505092915050565b61130c816112a5565b82525050565b5f6080820190506113255f830187611303565b6113326020830186611303565b61133f6040830185611303565b61134c6060830184611303565b95945050505050565b5f6020820190506113685f830184611303565b92915050565b5f73ffffffffffffffffffffffffffffffffffffffff82169050919050565b5f819050919050565b5f6113b06113ab6113a68461136e565b61138d565b61136e565b9050919050565b5f6113c182611396565b9050919050565b5f6113d2826113b7565b9050919050565b6113e2816113c8565b82525050565b5f6020820190506113fb5f8301846113d9565b92915050565b5f5f60408385031215611417576114166112a1565b5b5f611424858286016112c4565b9250506020611435858286016112c4565b9150509250929050565b5f611449826113b7565b9050919050565b6114598161143f565b82525050565b5f6020820190506114725f830184611450565b92915050565b5f6114828261136e565b9050919050565b61149281611478565b82525050565b5f6020820190506114ab5f830184611489565b92915050565b6114ba81611478565b81146114c4575f5ffd5b50565b5f813590506114d5816114b1565b92915050565b5f5f604083850312156114f1576114f06112a1565b5b5f6114fe858286016112c4565b925050602061150f858286016114c7565b9150509250929050565b5f60408201905061152c5f830185611303565b6115396020830184611303565b9392505050565b5f61154a826113b7565b9050919050565b61155a81611540565b82525050565b5f6020820190506115735f830184611551565b92915050565b5f6020828403121561158e5761158d6112a1565b5b5f61159b848285016114c7565b91505092915050565b5f82825260208201905092915050565b7f4f766572207769746864726177000000000000000000000000000000000000005f82015250565b5f6115e8600d836115a4565b91506115f3826115b4565b602082019050919050565b5f6020820190508181035f830152611615816115dc565b9050919050565b7f4e487b71000000000000000000000000000000000000000000000000000000005f52601160045260245ffd5b5f611653826112a5565b915061165e836112a5565b925082820261166c816112a5565b915082820484148315176116835761168261161c565b5b5092915050565b7f4e487b71000000000000000000000000000000000000000000000000000000005f52601260045260245ffd5b5f6116c1826112a5565b91506116cc836112a5565b9250826116dc576116db61168a565b5b828204905092915050565b5f6116f1826112a5565b91506116fc836112a5565b92508282039050818111156117145761171361161c565b5b92915050565b5f60408201905061172d5f830185611489565b61173a6020830184611303565b9392505050565b5f8115159050919050565b61175581611741565b811461175f575f5ffd5b50565b5f815190506117708161174c565b92915050565b5f6020828403121561178b5761178a6112a1565b5b5f61179884828501611762565b91505092915050565b5f6117ab826112a5565b91506117b6836112a5565b92508282019050808211156117ce576117cd61161c565b5b92915050565b7f4e487b71000000000000000000000000000000000000000000000000000000005f52603260045260245ffd5b5f8151905061180f816112ae565b92915050565b5f6020828403121561182a576118296112a1565b5b5f61183784828501611801565b91505092915050565b5f6060820190506118535f830186611489565b6118606020830185611489565b61186d6040830184611303565b94935050505056fea26469706673582212205f4f50cf3281257d4d6fcf3cba5d021e53040cf8201b12d72fa407ce5b1aff7064736f6c634300081c0033",
  "linkReferences": {},
  "deployedLinkReferences": {},
  "immutableReferences": {
    "9095": [
      {
        "length": 32,
        "start": 2080
      },
      {
        "length": 32,
        "start": 2713
      },
      {
        "length": 32,
        "start": 3530
      },
      {
        "length": 32,
        "start": 3692
      },
      {
        "length": 32,
        "start": 3853
      }
    ],
    "9098": [
      {
        "length": 32,
        "start": 880
      },
      {
        "length": 32,
        "start": 1282
      },
      {
        "length": 32,
        "start": 1360
      },
      {
        "length": 32,
        "start": 3062
      }
    ]
  },
  "inputSourceName": "project/contracts/RegionFarmDynamic.sol",
  "buildInfoId": "solc-0_8_28-8ca2fbd7d495a08cb6599e93a042ca811ce21875"
}