{
  "_format": "hh3-artifact-1",
  "contractName": "VeOligarchy",
  "sourceName": "contracts/VeOligarchy.sol",
  "abi": [
    {
      "inputs": [
        {
          "internalType": "address",
          "name": "_tokenAddr",
          "type": "address"
        }
      ],
      "stateMutability": "nonpayable",
      "type": "constructor"
    },
    {
      "inputs": [],
      "name": "ReentrancyGuardReentrantCall",
      "type": "error"
    },
    {
      "inputs": [
        {
          "internalType": "address",
          "name": "token",
          "type": "address"
        }
      ],
      "name": "SafeERC20FailedOperation",
      "type": "error"
    },
    {
      "anonymous": false,
      "inputs": [
        {
          "indexed": true,
          "internalType": "address",
          "name": "provider",
          "type": "address"
        },
        {
          "indexed": false,
          "internalType": "uint256",
          "name": "value",
          "type": "uint256"
        },
        {
          "indexed": false,
          "internalType": "uint256",
          "name": "locktime",
          "type": "uint256"
        }
      ],
      "name": "Deposit",
      "type": "event"
    },
    {
      "anonymous": false,
      "inputs": [
        {
          "indexed": true,
          "internalType": "address",
          "name": "provider",
          "type": "address"
        },
        {
          "indexed": false,
          "internalType": "uint256",
          "name": "value",
          "type": "uint256"
        }
      ],
      "name": "Withdraw",
      "type": "event"
    },
    {
      "inputs": [],
      "name": "MAX_LOCK",
      "outputs": [
        {
          "internalType": "uint256",
          "name": "",
          "type": "uint256"
        }
      ],
      "stateMutability": "view",
      "type": "function"
    },
    {
      "inputs": [],
      "name": "WEEK",
      "outputs": [
        {
          "internalType": "uint256",
          "name": "",
          "type": "uint256"
        }
      ],
      "stateMutability": "view",
      "type": "function"
    },
    {
      "inputs": [
        {
          "internalType": "address",
          "name": "_user",
          "type": "address"
        }
      ],
      "name": "balanceOf",
      "outputs": [
        {
          "internalType": "uint256",
          "name": "",
          "type": "uint256"
        }
      ],
      "stateMutability": "view",
      "type": "function"
    },
    {
      "inputs": [
        {
          "internalType": "uint256",
          "name": "_value",
          "type": "uint256"
        },
        {
          "internalType": "uint256",
          "name": "_unlockTime",
          "type": "uint256"
        }
      ],
      "name": "createLock",
      "outputs": [],
      "stateMutability": "nonpayable",
      "type": "function"
    },
    {
      "inputs": [
        {
          "internalType": "address",
          "name": "",
          "type": "address"
        }
      ],
      "name": "locked",
      "outputs": [
        {
          "internalType": "int128",
          "name": "amount",
          "type": "int128"
        },
        {
          "internalType": "uint256",
          "name": "end",
          "type": "uint256"
        }
      ],
      "stateMutability": "view",
      "type": "function"
    },
    {
      "inputs": [],
      "name": "token",
      "outputs": [
        {
          "internalType": "contract IERC20",
          "name": "",
          "type": "address"
        }
      ],
      "stateMutability": "view",
      "type": "function"
    },
    {
      "inputs": [],
      "name": "totalSupply",
      "outputs": [
        {
          "internalType": "uint256",
          "name": "",
          "type": "uint256"
        }
      ],
      "stateMutability": "view",
      "type": "function"
    },
    {
      "inputs": [],
      "name": "withdraw",
      "outputs": [],
      "stateMutability": "nonpayable",
      "type": "function"
    }
  ],
  "bytecode": "0x60a060405234801561000f575f5ffd5b50604051611149380380611149833981810160405281019061003191906100d0565b60015f819055508073ffffffffffffffffffffffffffffffffffffffff1660808173ffffffffffffffffffffffffffffffffffffffff1681525050506100fb565b5f5ffd5b5f73ffffffffffffffffffffffffffffffffffffffff82169050919050565b5f61009f82610076565b9050919050565b6100af81610095565b81146100b9575f5ffd5b50565b5f815190506100ca816100a6565b92915050565b5f602082840312156100e5576100e4610072565b5b5f6100f2848285016100bc565b91505092915050565b6080516110286101215f395f81816103270152818161062301526107b301526110285ff3fe608060405234801561000f575f5ffd5b5060043610610086575f3560e01c8063b52c05fe11610059578063b52c05fe14610100578063cbf9fe5f1461011c578063f4359ce51461014d578063fc0c546a1461016b57610086565b806318160ddd1461008a5780633ccfd60b146100a857806365a5d5f0146100b257806370a08231146100d0575b5f5ffd5b610092610189565b60405161009f91906109d6565b60405180910390f35b6100b061018f565b005b6100ba6103c5565b6040516100c791906109d6565b60405180910390f35b6100ea60048036038101906100e59190610a4d565b6103cd565b6040516100f791906109d6565b60405180910390f35b61011a60048036038101906101159190610aa2565b610490565b005b61013660048036038101906101319190610a4d565b61077e565b604051610144929190610afb565b60405180910390f35b6101556107aa565b60405161016291906109d6565b60405180910390f35b6101736107b1565b6040516101809190610b7d565b60405180910390f35b60025481565b6101976107d5565b5f60015f3373ffffffffffffffffffffffffffffffffffffffff1673ffffffffffffffffffffffffffffffffffffffff1681526020019081526020015f206040518060400160405290815f82015f9054906101000a9004600f0b600f0b600f0b815260200160018201548152505090505f815f0151600f0b1361024f576040517f08c379a000000000000000000000000000000000000000000000000000000000815260040161024690610bf0565b60405180910390fd5b8060200151421015610296576040517f08c379a000000000000000000000000000000000000000000000000000000000815260040161028d90610c58565b60405180910390fd5b5f815f0151600f0b905060015f3373ffffffffffffffffffffffffffffffffffffffff1673ffffffffffffffffffffffffffffffffffffffff1681526020019081526020015f205f5f82015f6101000a8154906fffffffffffffffffffffffffffffffff0219169055600182015f905550508060025f8282546103199190610ca3565b9250508190555061036b33827f000000000000000000000000000000000000000000000000000000000000000073ffffffffffffffffffffffffffffffffffffffff166108199092919063ffffffff16565b3373ffffffffffffffffffffffffffffffffffffffff167f884edad9ce6fa2440d8a54cc123490eb96d2768479d49ff9c7366125a9424364826040516103b191906109d6565b60405180910390a250506103c3610898565b565b6301e1338081565b5f5f60015f8473ffffffffffffffffffffffffffffffffffffffff1673ffffffffffffffffffffffffffffffffffffffff1681526020019081526020015f206040518060400160405290815f82015f9054906101000a9004600f0b600f0b600f0b8152602001600182015481525050905080602001514210610452575f91505061048b565b5f4282602001516104639190610ca3565b90506301e1338081835f0151600f0b61047c9190610cd6565b6104869190610d44565b925050505b919050565b6104986107d5565b5f82116104da576040517f08c379a00000000000000000000000000000000000000000000000000000000081526004016104d190610dbe565b60405180910390fd5b5f60015f3373ffffffffffffffffffffffffffffffffffffffff1673ffffffffffffffffffffffffffffffffffffffff1681526020019081526020015f205f015f9054906101000a9004600f0b600f0b1461056a576040517f08c379a000000000000000000000000000000000000000000000000000000000815260040161056190610e26565b60405180910390fd5b4281116105ac576040517f08c379a00000000000000000000000000000000000000000000000000000000081526004016105a390610e8e565b60405180910390fd5b6301e13380426105bc9190610eac565b8111156105fe576040517f08c379a00000000000000000000000000000000000000000000000000000000081526004016105f590610f29565b60405180910390fd5b5f62093a80808361060f9190610d44565b6106199190610cd6565b90506106683330857f000000000000000000000000000000000000000000000000000000000000000073ffffffffffffffffffffffffffffffffffffffff166108a1909392919063ffffffff16565b604051806040016040528084600f0b81526020018281525060015f3373ffffffffffffffffffffffffffffffffffffffff1673ffffffffffffffffffffffffffffffffffffffff1681526020019081526020015f205f820151815f015f6101000a8154816fffffffffffffffffffffffffffffffff0219169083600f0b6fffffffffffffffffffffffffffffffff160217905550602082015181600101559050508260025f82825461071a9190610eac565b925050819055503373ffffffffffffffffffffffffffffffffffffffff167f90890809c654f11d6e72a28fa60149770a0d11ec6c92319d6ceb2bb0a4ea1a158483604051610769929190610f47565b60405180910390a25061077a610898565b5050565b6001602052805f5260405f205f91509050805f015f9054906101000a9004600f0b908060010154905082565b62093a8081565b7f000000000000000000000000000000000000000000000000000000000000000081565b60025f5403610810576040517f3ee5aeb500000000000000000000000000000000000000000000000000000000815260040160405180910390fd5b60025f81905550565b610893838473ffffffffffffffffffffffffffffffffffffffff1663a9059cbb858560405160240161084c929190610f7d565b604051602081830303815290604052915060e01b6020820180517bffffffffffffffffffffffffffffffffffffffffffffffffffffffff8381831617835250505050610923565b505050565b60015f81905550565b61091d848573ffffffffffffffffffffffffffffffffffffffff166323b872dd8686866040516024016108d693929190610fa4565b604051602081830303815290604052915060e01b6020820180517bffffffffffffffffffffffffffffffffffffffffffffffffffffffff8381831617835250505050610923565b50505050565b5f5f60205f8451602086015f885af180610942576040513d5f823e3d81fd5b3d92505f519150505f821461095b576001811415610976565b5f8473ffffffffffffffffffffffffffffffffffffffff163b145b156109b857836040517f5274afe70000000000000000000000000000000000000000000000000000000081526004016109af9190610fd9565b60405180910390fd5b50505050565b5f819050919050565b6109d0816109be565b82525050565b5f6020820190506109e95f8301846109c7565b92915050565b5f5ffd5b5f73ffffffffffffffffffffffffffffffffffffffff82169050919050565b5f610a1c826109f3565b9050919050565b610a2c81610a12565b8114610a36575f5ffd5b50565b5f81359050610a4781610a23565b92915050565b5f60208284031215610a6257610a616109ef565b5b5f610a6f84828501610a39565b91505092915050565b610a81816109be565b8114610a8b575f5ffd5b50565b5f81359050610a9c81610a78565b92915050565b5f5f60408385031215610ab857610ab76109ef565b5b5f610ac585828601610a8e565b9250506020610ad685828601610a8e565b9150509250929050565b5f81600f0b9050919050565b610af581610ae0565b82525050565b5f604082019050610b0e5f830185610aec565b610b1b60208301846109c7565b9392505050565b5f819050919050565b5f610b45610b40610b3b846109f3565b610b22565b6109f3565b9050919050565b5f610b5682610b2b565b9050919050565b5f610b6782610b4c565b9050919050565b610b7781610b5d565b82525050565b5f602082019050610b905f830184610b6e565b92915050565b5f82825260208201905092915050565b7f4e6f206c6f636b000000000000000000000000000000000000000000000000005f82015250565b5f610bda600783610b96565b9150610be582610ba6565b602082019050919050565b5f6020820190508181035f830152610c0781610bce565b9050919050565b7f4e6f7420657870697265640000000000000000000000000000000000000000005f82015250565b5f610c42600b83610b96565b9150610c4d82610c0e565b602082019050919050565b5f6020820190508181035f830152610c6f81610c36565b9050919050565b7f4e487b71000000000000000000000000000000000000000000000000000000005f52601160045260245ffd5b5f610cad826109be565b9150610cb8836109be565b9250828203905081811115610cd057610ccf610c76565b5b92915050565b5f610ce0826109be565b9150610ceb836109be565b9250828202610cf9816109be565b91508282048414831517610d1057610d0f610c76565b5b5092915050565b7f4e487b71000000000000000000000000000000000000000000000000000000005f52601260045260245ffd5b5f610d4e826109be565b9150610d59836109be565b925082610d6957610d68610d17565b5b828204905092915050565b7f56616c7565203e203000000000000000000000000000000000000000000000005f82015250565b5f610da8600983610b96565b9150610db382610d74565b602082019050919050565b5f6020820190508181035f830152610dd581610d9c565b9050919050565b7f5769746864726177206f6c6420666972737400000000000000000000000000005f82015250565b5f610e10601283610b96565b9150610e1b82610ddc565b602082019050919050565b5f6020820190508181035f830152610e3d81610e04565b9050919050565b7f467574757265206f6e6c790000000000000000000000000000000000000000005f82015250565b5f610e78600b83610b96565b9150610e8382610e44565b602082019050919050565b5f6020820190508181035f830152610ea581610e6c565b9050919050565b5f610eb6826109be565b9150610ec1836109be565b9250828201905080821115610ed957610ed8610c76565b5b92915050565b7f4d617820312079656172000000000000000000000000000000000000000000005f82015250565b5f610f13600a83610b96565b9150610f1e82610edf565b602082019050919050565b5f6020820190508181035f830152610f4081610f07565b9050919050565b5f604082019050610f5a5f8301856109c7565b610f6760208301846109c7565b9392505050565b610f7781610a12565b82525050565b5f604082019050610f905f830185610f6e565b610f9d60208301846109c7565b9392505050565b5f606082019050610fb75f830186610f6e565b610fc46020830185610f6e565b610fd160408301846109c7565b949350505050565b5f602082019050610fec5f830184610f6e565b9291505056fea26469706673582212202704c0602b03a4b1851a09b544a2091c5d0f408bd09c7c00938344465e467b3964736f6c634300081c0033",
  "linkReferences": {},
  "deployedLinkReferences": {},
  "immutableReferences": {
    "9701": [
      {
        "length": 32,
        "start": 807
      },
      {
        "length": 32,
        "start": 1571
      },
      {
        "length": 32,
        "start": 1971
      }
    ]
  },
  "inputSourceName": "project/contracts/VeOligarchy.sol",
  "buildInfoId": "solc-0_8_28-8ca2fbd7d495a08cb6599e93a042ca811ce21875"
}