{
  "_format": "hh3-artifact-1",
  "contractName": "WarTheater",
  "sourceName": "contracts/WarTheater.sol",
  "abi": [
    {
      "inputs": [
        {
          "internalType": "address",
          "name": "_oligToken",
          "type": "address"
        },
        {
          "internalType": "address",
          "name": "_voter",
          "type": "address"
        }
      ],
      "stateMutability": "nonpayable",
      "type": "constructor"
    },
    {
      "inputs": [
        {
          "internalType": "address",
          "name": "owner",
          "type": "address"
        }
      ],
      "name": "OwnableInvalidOwner",
      "type": "error"
    },
    {
      "inputs": [
        {
          "internalType": "address",
          "name": "account",
          "type": "address"
        }
      ],
      "name": "OwnableUnauthorizedAccount",
      "type": "error"
    },
    {
      "inputs": [],
      "name": "ReentrancyGuardReentrantCall",
      "type": "error"
    },
    {
      "anonymous": false,
      "inputs": [
        {
          "indexed": true,
          "internalType": "address",
          "name": "previousOwner",
          "type": "address"
        },
        {
          "indexed": true,
          "internalType": "address",
          "name": "newOwner",
          "type": "address"
        }
      ],
      "name": "OwnershipTransferred",
      "type": "event"
    },
    {
      "anonymous": false,
      "inputs": [
        {
          "indexed": false,
          "internalType": "address",
          "name": "user",
          "type": "address"
        },
        {
          "indexed": false,
          "internalType": "uint256",
          "name": "regionId",
          "type": "uint256"
        },
        {
          "indexed": false,
          "internalType": "uint256",
          "name": "amount",
          "type": "uint256"
        },
        {
          "indexed": false,
          "internalType": "bool",
          "name": "isAttack",
          "type": "bool"
        }
      ],
      "name": "TroopsEnlisted",
      "type": "event"
    },
    {
      "anonymous": false,
      "inputs": [
        {
          "indexed": false,
          "internalType": "uint256",
          "name": "epoch",
          "type": "uint256"
        },
        {
          "indexed": false,
          "internalType": "uint256",
          "name": "attacker",
          "type": "uint256"
        },
        {
          "indexed": false,
          "internalType": "uint256",
          "name": "defender",
          "type": "uint256"
        }
      ],
      "name": "WarDeclared",
      "type": "event"
    },
    {
      "anonymous": false,
      "inputs": [
        {
          "indexed": false,
          "internalType": "uint256",
          "name": "epoch",
          "type": "uint256"
        },
        {
          "indexed": false,
          "internalType": "uint256",
          "name": "attacker",
          "type": "uint256"
        },
        {
          "indexed": false,
          "internalType": "uint256",
          "name": "defender",
          "type": "uint256"
        },
        {
          "indexed": false,
          "internalType": "bool",
          "name": "success",
          "type": "bool"
        }
      ],
      "name": "WarResult",
      "type": "event"
    },
    {
      "inputs": [],
      "name": "EPOCH_DURATION",
      "outputs": [
        {
          "internalType": "uint256",
          "name": "",
          "type": "uint256"
        }
      ],
      "stateMutability": "view",
      "type": "function"
    },
    {
      "inputs": [],
      "name": "LOOT_PERCENTAGE",
      "outputs": [
        {
          "internalType": "uint256",
          "name": "",
          "type": "uint256"
        }
      ],
      "stateMutability": "view",
      "type": "function"
    },
    {
      "inputs": [
        {
          "internalType": "uint256",
          "name": "_attackerRegion",
          "type": "uint256"
        },
        {
          "internalType": "uint256",
          "name": "_defenderRegion",
          "type": "uint256"
        }
      ],
      "name": "declareWar",
      "outputs": [],
      "stateMutability": "nonpayable",
      "type": "function"
    },
    {
      "inputs": [
        {
          "internalType": "uint256",
          "name": "_regionId",
          "type": "uint256"
        },
        {
          "internalType": "uint256",
          "name": "_amount",
          "type": "uint256"
        },
        {
          "internalType": "bool",
          "name": "_isAttack",
          "type": "bool"
        }
      ],
      "name": "enlistTroops",
      "outputs": [],
      "stateMutability": "nonpayable",
      "type": "function"
    },
    {
      "inputs": [],
      "name": "oligToken",
      "outputs": [
        {
          "internalType": "contract ERC20Burnable",
          "name": "",
          "type": "address"
        }
      ],
      "stateMutability": "view",
      "type": "function"
    },
    {
      "inputs": [],
      "name": "owner",
      "outputs": [
        {
          "internalType": "address",
          "name": "",
          "type": "address"
        }
      ],
      "stateMutability": "view",
      "type": "function"
    },
    {
      "inputs": [
        {
          "internalType": "uint256",
          "name": "",
          "type": "uint256"
        },
        {
          "internalType": "uint256",
          "name": "",
          "type": "uint256"
        }
      ],
      "name": "regionAttackPower",
      "outputs": [
        {
          "internalType": "uint256",
          "name": "",
          "type": "uint256"
        }
      ],
      "stateMutability": "view",
      "type": "function"
    },
    {
      "inputs": [
        {
          "internalType": "uint256",
          "name": "",
          "type": "uint256"
        },
        {
          "internalType": "uint256",
          "name": "",
          "type": "uint256"
        }
      ],
      "name": "regionDefensePower",
      "outputs": [
        {
          "internalType": "uint256",
          "name": "",
          "type": "uint256"
        }
      ],
      "stateMutability": "view",
      "type": "function"
    },
    {
      "inputs": [],
      "name": "renounceOwnership",
      "outputs": [],
      "stateMutability": "nonpayable",
      "type": "function"
    },
    {
      "inputs": [
        {
          "internalType": "uint256",
          "name": "_attackerRegion",
          "type": "uint256"
        }
      ],
      "name": "resolveWar",
      "outputs": [],
      "stateMutability": "nonpayable",
      "type": "function"
    },
    {
      "inputs": [
        {
          "internalType": "address",
          "name": "newOwner",
          "type": "address"
        }
      ],
      "name": "transferOwnership",
      "outputs": [],
      "stateMutability": "nonpayable",
      "type": "function"
    },
    {
      "inputs": [],
      "name": "voter",
      "outputs": [
        {
          "internalType": "contract IOligarchyVoter",
          "name": "",
          "type": "address"
        }
      ],
      "stateMutability": "view",
      "type": "function"
    },
    {
      "inputs": [
        {
          "internalType": "uint256",
          "name": "",
          "type": "uint256"
        },
        {
          "internalType": "uint256",
          "name": "",
          "type": "uint256"
        }
      ],
      "name": "warResolved",
      "outputs": [
        {
          "internalType": "bool",
          "name": "",
          "type": "bool"
        }
      ],
      "stateMutability": "view",
      "type": "function"
    },
    {
      "inputs": [
        {
          "internalType": "uint256",
          "name": "",
          "type": "uint256"
        },
        {
          "internalType": "uint256",
          "name": "",
          "type": "uint256"
        }
      ],
      "name": "warTargets",
      "outputs": [
        {
          "internalType": "uint256",
          "name": "",
          "type": "uint256"
        }
      ],
      "stateMutability": "view",
      "type": "function"
    }
  ],
  "bytecode": "0x60a060405234801561000f575f5ffd5b506040516115cb3803806115cb83398181016040528101906100319190610253565b335f73ffffffffffffffffffffffffffffffffffffffff168173ffffffffffffffffffffffffffffffffffffffff16036100a2575f6040517f1e4fbdf700000000000000000000000000000000000000000000000000000000815260040161009991906102a0565b60405180910390fd5b6100b18161013460201b60201c565b50600180819055508173ffffffffffffffffffffffffffffffffffffffff1660808173ffffffffffffffffffffffffffffffffffffffff16815250508060025f6101000a81548173ffffffffffffffffffffffffffffffffffffffff021916908373ffffffffffffffffffffffffffffffffffffffff16021790555050506102b9565b5f5f5f9054906101000a900473ffffffffffffffffffffffffffffffffffffffff169050815f5f6101000a81548173ffffffffffffffffffffffffffffffffffffffff021916908373ffffffffffffffffffffffffffffffffffffffff1602179055508173ffffffffffffffffffffffffffffffffffffffff168173ffffffffffffffffffffffffffffffffffffffff167f8be0079c531659141344cd1fd0a4f28419497f9722a3daafe3b4186f6b6457e060405160405180910390a35050565b5f5ffd5b5f73ffffffffffffffffffffffffffffffffffffffff82169050919050565b5f610222826101f9565b9050919050565b61023281610218565b811461023c575f5ffd5b50565b5f8151905061024d81610229565b92915050565b5f5f60408385031215610269576102686101f5565b5b5f6102768582860161023f565b92505060206102878582860161023f565b9150509250929050565b61029a81610218565b82525050565b5f6020820190506102b35f830184610291565b92915050565b6080516112f36102d85f395f818161047d015261080501526112f35ff3fe608060405234801561000f575f5ffd5b50600436106100e8575f3560e01c8063bd9105cb1161008a578063e674098f11610064578063e674098f14610238578063f2fde38b14610254578063fde2447e14610270578063fde6ee71146102a0576100e8565b8063bd9105cb146101ce578063c6c14208146101ea578063caae794d14610208576100e8565b806376ee8d07116100c657806376ee8d07146101325780638da5cb5b14610162578063a70b9f0c14610180578063ba3f41341461019e576100e8565b806346c96aac146100ec5780636dce0fff1461010a578063715018a614610128575b5f5ffd5b6100f46102bc565b6040516101019190610c67565b60405180910390f35b6101126102e1565b60405161011f9190610c98565b60405180910390f35b6101306102e6565b005b61014c60048036038101906101479190610cdf565b6102f9565b6040516101599190610c98565b60405180910390f35b61016a610319565b6040516101779190610d3d565b60405180910390f35b610188610340565b6040516101959190610c98565b60405180910390f35b6101b860048036038101906101b39190610cdf565b610347565b6040516101c59190610c98565b60405180910390f35b6101e860048036038101906101e39190610cdf565b610367565b005b6101f261047b565b6040516101ff9190610d76565b60405180910390f35b610222600480360381019061021d9190610cdf565b61049f565b60405161022f9190610da9565b60405180910390f35b610252600480360381019061024d9190610dc2565b6104c9565b005b61026e60048036038101906102699190610e17565b610715565b005b61028a60048036038101906102859190610cdf565b610799565b6040516102979190610c98565b60405180910390f35b6102ba60048036038101906102b59190610e6c565b6107b9565b005b60025f9054906101000a900473ffffffffffffffffffffffffffffffffffffffff1681565b601e81565b6102ee6109bb565b6102f75f610a42565b565b6005602052815f5260405f20602052805f5260405f205f91509150505481565b5f5f5f9054906101000a900473ffffffffffffffffffffffffffffffffffffffff16905090565b62093a8081565b6003602052815f5260405f20602052805f5260405f205f91509150505481565b5f610370610b03565b90508183036103b4576040517f08c379a00000000000000000000000000000000000000000000000000000000081526004016103ab90610f16565b60405180910390fd5b5f60055f8381526020019081526020015f205f8581526020019081526020015f205414610416576040517f08c379a000000000000000000000000000000000000000000000000000000000815260040161040d90610f7e565b60405180910390fd5b8160055f8381526020019081526020015f205f8581526020019081526020015f20819055507f3d61ef87e0687948bfbb78633b91769cb5c378fdbcfbf48ad4e18ea02e02248681848460405161046e93929190610f9c565b60405180910390a1505050565b7f000000000000000000000000000000000000000000000000000000000000000081565b6006602052815f5260405f20602052805f5260405f205f915091509054906101000a900460ff1681565b6104d1610b97565b5f6104da610b03565b90505f60055f8381526020019081526020015f205f8481526020019081526020015f205490505f8103610542576040517f08c379a00000000000000000000000000000000000000000000000000000000081526004016105399061101b565b60405180910390fd5b60065f8381526020019081526020015f205f8481526020019081526020015f205f9054906101000a900460ff16156105af576040517f08c379a00000000000000000000000000000000000000000000000000000000081526004016105a690611083565b60405180910390fd5b5f60035f8481526020019081526020015f205f8581526020019081526020015f205490505f60045f8581526020019081526020015f205f8481526020019081526020015f205490505f818311905080156106905760025f9054906101000a900473ffffffffffffffffffffffffffffffffffffffff1673ffffffffffffffffffffffffffffffffffffffff166391c862658588601e6040518463ffffffff1660e01b815260040161066293929190610f9c565b5f604051808303815f87803b158015610679575f5ffd5b505af115801561068b573d5f5f3e3d5ffd5b505050505b600160065f8781526020019081526020015f205f8881526020019081526020015f205f6101000a81548160ff0219169083151502179055507f89b057676327767246015c69f9bf767f6758d00fc08b3fad49bc21e06b0c7483858786846040516106fd94939291906110a1565b60405180910390a15050505050610712610bdd565b50565b61071d6109bb565b5f73ffffffffffffffffffffffffffffffffffffffff168173ffffffffffffffffffffffffffffffffffffffff160361078d575f6040517f1e4fbdf70000000000000000000000000000000000000000000000000000000081526004016107849190610d3d565b60405180910390fd5b61079681610a42565b50565b6004602052815f5260405f20602052805f5260405f205f91509150505481565b6107c1610b97565b5f8211610803576040517f08c379a00000000000000000000000000000000000000000000000000000000081526004016107fa9061112e565b60405180910390fd5b7f000000000000000000000000000000000000000000000000000000000000000073ffffffffffffffffffffffffffffffffffffffff166379cc679033846040518363ffffffff1660e01b815260040161085e92919061114c565b5f604051808303815f87803b158015610875575f5ffd5b505af1158015610887573d5f5f3e3d5ffd5b505050505f610894610b03565b90508115610939575f60055f8381526020019081526020015f205f8681526020019081526020015f2054036108fe576040517f08c379a00000000000000000000000000000000000000000000000000000000081526004016108f5906111bd565b60405180910390fd5b8260035f8381526020019081526020015f205f8681526020019081526020015f205f82825461092d9190611208565b92505081905550610970565b8260045f8381526020019081526020015f205f8681526020019081526020015f205f8282546109689190611208565b925050819055505b7f3df20c5fbc846b9da647904a461d9f6d73976236db55970e92b642e0295b5d39338585856040516109a5949392919061123b565b60405180910390a1506109b6610bdd565b505050565b6109c3610be6565b73ffffffffffffffffffffffffffffffffffffffff166109e1610319565b73ffffffffffffffffffffffffffffffffffffffff1614610a4057610a04610be6565b6040517f118cdaa7000000000000000000000000000000000000000000000000000000008152600401610a379190610d3d565b60405180910390fd5b565b5f5f5f9054906101000a900473ffffffffffffffffffffffffffffffffffffffff169050815f5f6101000a81548173ffffffffffffffffffffffffffffffffffffffff021916908373ffffffffffffffffffffffffffffffffffffffff1602179055508173ffffffffffffffffffffffffffffffffffffffff168173ffffffffffffffffffffffffffffffffffffffff167f8be0079c531659141344cd1fd0a4f28419497f9722a3daafe3b4186f6b6457e060405160405180910390a35050565b5f60025f9054906101000a900473ffffffffffffffffffffffffffffffffffffffff1673ffffffffffffffffffffffffffffffffffffffff1663b97dd9e26040518163ffffffff1660e01b8152600401602060405180830381865afa158015610b6e573d5f5f3e3d5ffd5b505050506040513d601f19601f82011682018060405250810190610b929190611292565b905090565b600260015403610bd3576040517f3ee5aeb500000000000000000000000000000000000000000000000000000000815260040160405180910390fd5b6002600181905550565b60018081905550565b5f33905090565b5f73ffffffffffffffffffffffffffffffffffffffff82169050919050565b5f819050919050565b5f610c2f610c2a610c2584610bed565b610c0c565b610bed565b9050919050565b5f610c4082610c15565b9050919050565b5f610c5182610c36565b9050919050565b610c6181610c47565b82525050565b5f602082019050610c7a5f830184610c58565b92915050565b5f819050919050565b610c9281610c80565b82525050565b5f602082019050610cab5f830184610c89565b92915050565b5f5ffd5b610cbe81610c80565b8114610cc8575f5ffd5b50565b5f81359050610cd981610cb5565b92915050565b5f5f60408385031215610cf557610cf4610cb1565b5b5f610d0285828601610ccb565b9250506020610d1385828601610ccb565b9150509250929050565b5f610d2782610bed565b9050919050565b610d3781610d1d565b82525050565b5f602082019050610d505f830184610d2e565b92915050565b5f610d6082610c36565b9050919050565b610d7081610d56565b82525050565b5f602082019050610d895f830184610d67565b92915050565b5f8115159050919050565b610da381610d8f565b82525050565b5f602082019050610dbc5f830184610d9a565b92915050565b5f60208284031215610dd757610dd6610cb1565b5b5f610de484828501610ccb565b91505092915050565b610df681610d1d565b8114610e00575f5ffd5b50565b5f81359050610e1181610ded565b92915050565b5f60208284031215610e2c57610e2b610cb1565b5b5f610e3984828501610e03565b91505092915050565b610e4b81610d8f565b8114610e55575f5ffd5b50565b5f81359050610e6681610e42565b92915050565b5f5f5f60608486031215610e8357610e82610cb1565b5b5f610e9086828701610ccb565b9350506020610ea186828701610ccb565b9250506040610eb286828701610e58565b9150509250925092565b5f82825260208201905092915050565b7f53656c662061747461636b0000000000000000000000000000000000000000005f82015250565b5f610f00600b83610ebc565b9150610f0b82610ecc565b602082019050919050565b5f6020820190508181035f830152610f2d81610ef4565b9050919050565b7f416c72656164792077617272696e6700000000000000000000000000000000005f82015250565b5f610f68600f83610ebc565b9150610f7382610f34565b602082019050919050565b5f6020820190508181035f830152610f9581610f5c565b9050919050565b5f606082019050610faf5f830186610c89565b610fbc6020830185610c89565b610fc96040830184610c89565b949350505050565b7f4e6f2077617200000000000000000000000000000000000000000000000000005f82015250565b5f611005600683610ebc565b915061101082610fd1565b602082019050919050565b5f6020820190508181035f83015261103281610ff9565b9050919050565b7f5265736f6c7665640000000000000000000000000000000000000000000000005f82015250565b5f61106d600883610ebc565b915061107882611039565b602082019050919050565b5f6020820190508181035f83015261109a81611061565b9050919050565b5f6080820190506110b45f830187610c89565b6110c16020830186610c89565b6110ce6040830185610c89565b6110db6060830184610d9a565b95945050505050565b7f4e6565642074726f6f70730000000000000000000000000000000000000000005f82015250565b5f611118600b83610ebc565b9150611123826110e4565b602082019050919050565b5f6020820190508181035f8301526111458161110c565b9050919050565b5f60408201905061115f5f830185610d2e565b61116c6020830184610c89565b9392505050565b7f4e6f2077617220746172676574000000000000000000000000000000000000005f82015250565b5f6111a7600d83610ebc565b91506111b282611173565b602082019050919050565b5f6020820190508181035f8301526111d48161119b565b9050919050565b7f4e487b71000000000000000000000000000000000000000000000000000000005f52601160045260245ffd5b5f61121282610c80565b915061121d83610c80565b9250828201905080821115611235576112346111db565b5b92915050565b5f60808201905061124e5f830187610d2e565b61125b6020830186610c89565b6112686040830185610c89565b6112756060830184610d9a565b95945050505050565b5f8151905061128c81610cb5565b92915050565b5f602082840312156112a7576112a6610cb1565b5b5f6112b48482850161127e565b9150509291505056fea264697066735822122085d320aba3345b9b1cd2529cfdf453447f9a74271a3f40e4840cf7d1d96f79b964736f6c634300081c0033",
  "linkReferences": {},
  "deployedLinkReferences": {},
  "immutableReferences": {
    "9966": [
      {
        "length": 32,
        "start": 1149
      },
      {
        "length": 32,
        "start": 2053
      }
    ]
  },
  "inputSourceName": "project/contracts/WarTheater.sol",
  "buildInfoId": "solc-0_8_28-8ca2fbd7d495a08cb6599e93a042ca811ce21875"
}