{
  "_format": "hh3-artifact-1",
  "contractName": "RegionFarmDynamic",
  "sourceName": "contracts/RegionFarmDynamic.sol",
  "abi": [
    {
      "inputs": [
        {
          "internalType": "address",
          "name": "_oligToken",
          "type": "address"
        },
        {
          "internalType": "address",
          "name": "_mETH",
          "type": "address"
        },
        {
          "internalType": "address",
          "name": "_voter",
          "type": "address"
        },
        {
          "internalType": "uint256",
          "name": "_baseEmissionRate",
          "type": "uint256"
        }
      ],
      "stateMutability": "nonpayable",
      "type": "constructor"
    },
    {
      "inputs": [
        {
          "internalType": "address",
          "name": "owner",
          "type": "address"
        }
      ],
      "name": "OwnableInvalidOwner",
      "type": "error"
    },
    {
      "inputs": [
        {
          "internalType": "address",
          "name": "account",
          "type": "address"
        }
      ],
      "name": "OwnableUnauthorizedAccount",
      "type": "error"
    },
    {
      "inputs": [],
      "name": "ReentrancyGuardReentrantCall",
      "type": "error"
    },
    {
      "inputs": [
        {
          "internalType": "address",
          "name": "token",
          "type": "address"
        }
      ],
      "name": "SafeERC20FailedOperation",
      "type": "error"
    },
    {
      "anonymous": false,
      "inputs": [
        {
          "indexed": true,
          "internalType": "address",
          "name": "user",
          "type": "address"
        },
        {
          "indexed": true,
          "internalType": "uint256",
          "name": "pid",
          "type": "uint256"
        },
        {
          "indexed": false,
          "internalType": "uint256",
          "name": "amount",
          "type": "uint256"
        }
      ],
      "name": "Deposit",
      "type": "event"
    },
    {
      "anonymous": false,
      "inputs": [
        {
          "indexed": true,
          "internalType": "address",
          "name": "previousOwner",
          "type": "address"
        },
        {
          "indexed": true,
          "internalType": "address",
          "name": "newOwner",
          "type": "address"
        }
      ],
      "name": "OwnershipTransferred",
      "type": "event"
    },
    {
      "anonymous": false,
      "inputs": [
        {
          "indexed": true,
          "internalType": "address",
          "name": "user",
          "type": "address"
        },
        {
          "indexed": true,
          "internalType": "uint256",
          "name": "pid",
          "type": "uint256"
        },
        {
          "indexed": false,
          "internalType": "uint256",
          "name": "amount",
          "type": "uint256"
        },
        {
          "indexed": false,
          "internalType": "uint256",
          "name": "tax",
          "type": "uint256"
        }
      ],
      "name": "Withdraw",
      "type": "event"
    },
    {
      "inputs": [],
      "name": "DENOMINATOR",
      "outputs": [
        {
          "internalType": "uint256",
          "name": "",
          "type": "uint256"
        }
      ],
      "stateMutability": "view",
      "type": "function"
    },
    {
      "inputs": [],
      "name": "EXIT_TAX_RATE",
      "outputs": [
        {
          "internalType": "uint256",
          "name": "",
          "type": "uint256"
        }
      ],
      "stateMutability": "view",
      "type": "function"
    },
    {
      "inputs": [
        {
          "internalType": "uint256",
          "name": "",
          "type": "uint256"
        }
      ],
      "name": "activeRegions",
      "outputs": [
        {
          "internalType": "uint256",
          "name": "",
          "type": "uint256"
        }
      ],
      "stateMutability": "view",
      "type": "function"
    },
    {
      "inputs": [
        {
          "internalType": "uint256",
          "name": "_regionId",
          "type": "uint256"
        },
        {
          "internalType": "uint256",
          "name": "_initialAllocPoint",
          "type": "uint256"
        }
      ],
      "name": "addRegion",
      "outputs": [],
      "stateMutability": "nonpayable",
      "type": "function"
    },
    {
      "inputs": [],
      "name": "baseEmissionRate",
      "outputs": [
        {
          "internalType": "uint256",
          "name": "",
          "type": "uint256"
        }
      ],
      "stateMutability": "view",
      "type": "function"
    },
    {
      "inputs": [
        {
          "internalType": "uint256",
          "name": "_pid",
          "type": "uint256"
        },
        {
          "internalType": "uint256",
          "name": "_amount",
          "type": "uint256"
        }
      ],
      "name": "deposit",
      "outputs": [],
      "stateMutability": "nonpayable",
      "type": "function"
    },
    {
      "inputs": [],
      "name": "mETH",
      "outputs": [
        {
          "internalType": "contract IERC20",
          "name": "",
          "type": "address"
        }
      ],
      "stateMutability": "view",
      "type": "function"
    },
    {
      "inputs": [],
      "name": "oligToken",
      "outputs": [
        {
          "internalType": "contract IMintableToken",
          "name": "",
          "type": "address"
        }
      ],
      "stateMutability": "view",
      "type": "function"
    },
    {
      "inputs": [],
      "name": "owner",
      "outputs": [
        {
          "internalType": "address",
          "name": "",
          "type": "address"
        }
      ],
      "stateMutability": "view",
      "type": "function"
    },
    {
      "inputs": [
        {
          "internalType": "uint256",
          "name": "",
          "type": "uint256"
        }
      ],
      "name": "poolInfo",
      "outputs": [
        {
          "internalType": "uint256",
          "name": "allocPoint",
          "type": "uint256"
        },
        {
          "internalType": "uint256",
          "name": "lastRewardTime",
          "type": "uint256"
        },
        {
          "internalType": "uint256",
          "name": "accOligPerShare",
          "type": "uint256"
        },
        {
          "internalType": "uint256",
          "name": "totalStaked",
          "type": "uint256"
        }
      ],
      "stateMutability": "view",
      "type": "function"
    },
    {
      "inputs": [],
      "name": "renounceOwnership",
      "outputs": [],
      "stateMutability": "nonpayable",
      "type": "function"
    },
    {
      "inputs": [],
      "name": "syncVotes",
      "outputs": [],
      "stateMutability": "nonpayable",
      "type": "function"
    },
    {
      "inputs": [],
      "name": "totalAllocPoint",
      "outputs": [
        {
          "internalType": "uint256",
          "name": "",
          "type": "uint256"
        }
      ],
      "stateMutability": "view",
      "type": "function"
    },
    {
      "inputs": [
        {
          "internalType": "address",
          "name": "newOwner",
          "type": "address"
        }
      ],
      "name": "transferOwnership",
      "outputs": [],
      "stateMutability": "nonpayable",
      "type": "function"
    },
    {
      "inputs": [
        {
          "internalType": "uint256",
          "name": "_pid",
          "type": "uint256"
        }
      ],
      "name": "updatePool",
      "outputs": [],
      "stateMutability": "nonpayable",
      "type": "function"
    },
    {
      "inputs": [
        {
          "internalType": "uint256",
          "name": "",
          "type": "uint256"
        },
        {
          "internalType": "address",
          "name": "",
          "type": "address"
        }
      ],
      "name": "userInfo",
      "outputs": [
        {
          "internalType": "uint256",
          "name": "amount",
          "type": "uint256"
        },
        {
          "internalType": "uint256",
          "name": "rewardDebt",
          "type": "uint256"
        }
      ],
      "stateMutability": "view",
      "type": "function"
    },
    {
      "inputs": [],
      "name": "voter",
      "outputs": [
        {
          "internalType": "contract IOligarchyVoter",
          "name": "",
          "type": "address"
        }
      ],
      "stateMutability": "view",
      "type": "function"
    },
    {
      "inputs": [
        {
          "internalType": "uint256",
          "name": "_pid",
          "type": "uint256"
        },
        {
          "internalType": "uint256",
          "name": "_amount",
          "type": "uint256"
        }
      ],
      "name": "withdraw",
      "outputs": [],
      "stateMutability": "nonpayable",
      "type": "function"
    }
  ],
  "bytecode": "0x60c06040525f600655348015610013575f5ffd5b5060405161107b38038061107b83398101604081905261003291610101565b338061005757604051631e4fbdf760e01b81525f600482015260240160405180910390fd5b61006081610097565b50600180556001600160a01b0393841660805291831660a052600280546001600160a01b0319169190931617909155600355610149565b5f80546001600160a01b038381166001600160a01b0319831681178455604051919092169283917f8be0079c531659141344cd1fd0a4f28419497f9722a3daafe3b4186f6b6457e09190a35050565b80516001600160a01b03811681146100fc575f5ffd5b919050565b5f5f5f5f60808587031215610114575f5ffd5b61011d856100e6565b935061012b602086016100e6565b9250610139604086016100e6565b6060959095015193969295505050565b60805160a051610ee061019b5f395f818161018a0152818161041b01528181610471015261092301525f818161028e0152818161068901528181610a6301528181610b040152610b9b0152610ee05ff3fe608060405234801561000f575f5ffd5b5060043610610111575f3560e01c80638da5cb5b1161009e578063c6c142081161006e578063c6c1420814610289578063cbb4c22d146102b0578063e2bbb158146102c3578063f2fde38b146102d6578063f317ca3d146102e9575f5ffd5b80638da5cb5b14610217578063918f86741461022757806393f1a40b14610230578063b219bbcd14610276575f5ffd5b806346c96aac116100e457806346c96aac146101d9578063482b5417146101ec57806351eb05a6146101f45780635db531a114610207578063715018a61461020f575f5ffd5b80631526fe271461011557806317caf6f11461016e57806329e8486714610185578063441a3e70146101c4575b5f5ffd5b610149610123366004610d4e565b60046020525f908152604090208054600182015460028301546003909301549192909184565b6040805194855260208501939093529183015260608201526080015b60405180910390f35b61017760065481565b604051908152602001610165565b6101ac7f000000000000000000000000000000000000000000000000000000000000000081565b6040516001600160a01b039091168152602001610165565b6101d76101d2366004610d65565b6102f2565b005b6002546101ac906001600160a01b031681565b610177600181565b6101d7610202366004610d4e565b6105b2565b6101d761072e565b6101d76107fc565b5f546001600160a01b03166101ac565b61017761271081565b61026161023e366004610da0565b600560209081525f92835260408084209091529082529020805460019091015482565b60408051928352602083019190915201610165565b610177610284366004610d4e565b61080f565b6101ac7f000000000000000000000000000000000000000000000000000000000000000081565b6101d76102be366004610d65565b61082e565b6101d76102d1366004610d65565b610891565b6101d76102e4366004610dca565b6109e5565b61017760035481565b6102fa610a22565b5f8281526004602090815260408083206005835281842033855290925290912080548311156103605760405162461bcd60e51b815260206004820152600d60248201526c4f76657220776974686472617760981b60448201526064015b60405180910390fd5b610369846105b2565b5f816001015464e8d4a510008460020154845f01546103889190610dfe565b6103929190610e1b565b61039c9190610e3a565b905080156103ae576103ae3382610a4c565b831561057f5783825f015f8282546103c69190610e3a565b9250508190555083836003015f8282546103e09190610e3a565b909155505f90506127106103f5600187610dfe565b6103ff9190610e1b565b90505f61040c8287610e3a565b90506104426001600160a01b037f0000000000000000000000000000000000000000000000000000000000000000163383610bcf565b811561053f5760025460405163095ea7b360e01b81526001600160a01b039182166004820152602481018490527f00000000000000000000000000000000000000000000000000000000000000009091169063095ea7b3906044016020604051808303815f875af11580156104b9573d5f5f3e3d5ffd5b505050506040513d601f19601f820116820180604052508101906104dd9190610e4d565b5060025460405163ede193bf60e01b815260048101899052602481018490526001600160a01b039091169063ede193bf906044015f604051808303815f87803b158015610528575f5ffd5b505af115801561053a573d5f5f3e3d5ffd5b505050505b6040805182815260208101849052889133917f02f25270a4d87bea75db541cdfe559334a275b4a233520ed6c0a2429667cca94910160405180910390a350505b6002830154825464e8d4a510009161059691610dfe565b6105a09190610e1b565b600192830155508055505050565b5050565b5f818152600460205260409020600181015442116105ce575050565b80600301545f036105e3574260019091015550565b5f8160010154426105f49190610e3a565b60065490915064e8d4a51000901561062757600654835461061a9064e8d4a51000610dfe565b6106249190610e1b565b90505b5f69d3c21bcecceda1000000826003548587600301546106479190610dfe565b6106519190610dfe565b61065b9190610dfe565b6106659190610e1b565b9050801561071e576040516340c10f1960e01b8152306004820152602481018290527f00000000000000000000000000000000000000000000000000000000000000006001600160a01b0316906340c10f19906044015f604051808303815f87803b1580156106d2575f5ffd5b505af11580156106e4573d5f5f3e3d5ffd5b5050505060038401546106fc8264e8d4a51000610dfe565b6107069190610e1b565b846002015f8282546107189190610e6c565b90915550505b4284600101819055505050505050565b5f805b6007548110156107f6575f6007828154811061074f5761074f610e7f565b905f5260205f2001549050610763816105b2565b600254604051630f67148b60e01b8152600481018390525f916001600160a01b031690630f67148b90602401602060405180830381865afa1580156107aa573d5f5f3e3d5ffd5b505050506040513d601f19601f820116820180604052508101906107ce9190610e93565b5f83815260046020526040902081905590506107ea8185610e6c565b93505050600101610731565b50600655565b610804610c2e565b61080d5f610c5a565b565b6007818154811061081e575f80fd5b5f91825260209091200154905081565b610836610c2e565b60078054600181019091557fa66cc928b5edb82af9bd49922954155ab7b0942694bea4ce44661d9a8736c688018290555f82815260046020526040812082905560068054839290610888908490610e6c565b90915550505050565b610899610a22565b5f828152600460209081526040808320600583528184203385529092529091206108c2846105b2565b805415610910575f816001015464e8d4a510008460020154845f01546108e89190610dfe565b6108f29190610e1b565b6108fc9190610e3a565b9050801561090e5761090e3382610a4c565b505b821561097d5761094b6001600160a01b037f000000000000000000000000000000000000000000000000000000000000000016333086610ca9565b82815f015f82825461095d9190610e6c565b9250508190555082826003015f8282546109779190610e6c565b90915550505b6002820154815464e8d4a510009161099491610dfe565b61099e9190610e1b565b6001820155604051838152849033907f90890809c654f11d6e72a28fa60149770a0d11ec6c92319d6ceb2bb0a4ea1a159060200160405180910390a350506105ae60018055565b6109ed610c2e565b6001600160a01b038116610a1657604051631e4fbdf760e01b81525f6004820152602401610357565b610a1f81610c5a565b50565b600260015403610a4557604051633ee5aeb560e01b815260040160405180910390fd5b6002600155565b6040516370a0823160e01b81523060048201525f907f00000000000000000000000000000000000000000000000000000000000000006001600160a01b0316906370a0823190602401602060405180830381865afa158015610ab0573d5f5f3e3d5ffd5b505050506040513d601f19601f82011682018060405250810190610ad49190610e93565b905080821115610b755760405163a9059cbb60e01b81526001600160a01b038481166004830152602482018390527f0000000000000000000000000000000000000000000000000000000000000000169063a9059cbb906044015b6020604051808303815f875af1158015610b4b573d5f5f3e3d5ffd5b505050506040513d601f19601f82011682018060405250810190610b6f9190610e4d565b50505050565b60405163a9059cbb60e01b81526001600160a01b038481166004830152602482018490527f0000000000000000000000000000000000000000000000000000000000000000169063a9059cbb90604401610b2f565b505050565b6040516001600160a01b03838116602483015260448201839052610bca91859182169063a9059cbb906064015b604051602081830303815290604052915060e01b6020820180516001600160e01b038381831617835250505050610ce2565b5f546001600160a01b0316331461080d5760405163118cdaa760e01b8152336004820152602401610357565b5f80546001600160a01b038381166001600160a01b0319831681178455604051919092169283917f8be0079c531659141344cd1fd0a4f28419497f9722a3daafe3b4186f6b6457e09190a35050565b6040516001600160a01b038481166024830152838116604483015260648201839052610b6f9186918216906323b872dd90608401610bfc565b5f5f60205f8451602086015f885af180610d01576040513d5f823e3d81fd5b50505f513d91508115610d18578060011415610d25565b6001600160a01b0384163b155b15610b6f57604051635274afe760e01b81526001600160a01b0385166004820152602401610357565b5f60208284031215610d5e575f5ffd5b5035919050565b5f5f60408385031215610d76575f5ffd5b50508035926020909101359150565b80356001600160a01b0381168114610d9b575f5ffd5b919050565b5f5f60408385031215610db1575f5ffd5b82359150610dc160208401610d85565b90509250929050565b5f60208284031215610dda575f5ffd5b610de382610d85565b9392505050565b634e487b7160e01b5f52601160045260245ffd5b8082028115828204841417610e1557610e15610dea565b92915050565b5f82610e3557634e487b7160e01b5f52601260045260245ffd5b500490565b81810381811115610e1557610e15610dea565b5f60208284031215610e5d575f5ffd5b81518015158114610de3575f5ffd5b80820180821115610e1557610e15610dea565b634e487b7160e01b5f52603260045260245ffd5b5f60208284031215610ea3575f5ffd5b505191905056fea264697066735822122095c6021961a5d22e07f903fd8d79438fcff5cd45cb64915d6d2d3ba3466dbe2864736f6c634300081c0033",
  "linkReferences": {},
  "deployedLinkReferences": {},
  "immutableReferences": {
    "918": [
      {
        "length": 32,
        "start": 654
      },
      {
        "length": 32,
        "start": 1673
      },
      {
        "length": 32,
        "start": 2659
      },
      {
        "length": 32,
        "start": 2820
      },
      {
        "length": 32,
        "start": 2971
      }
    ],
    "921": [
      {
        "length": 32,
        "start": 394
      },
      {
        "length": 32,
        "start": 1051
      },
      {
        "length": 32,
        "start": 1137
      },
      {
        "length": 32,
        "start": 2339
      }
    ]
  },
  "inputSourceName": "project/contracts/RegionFarmDynamic.sol",
  "buildInfoId": "solc-0_8_28-f7f4e5745d0206ada2134ea5debc3dd2c9c78c4c"
}