{
  "_format": "hh3-artifact-1",
  "contractName": "OligarchyVoter",
  "sourceName": "contracts/OligarchyVoter.sol",
  "abi": [
    {
      "inputs": [
        {
          "internalType": "address",
          "name": "_mETH",
          "type": "address"
        },
        {
          "internalType": "address",
          "name": "_veOLIG",
          "type": "address"
        }
      ],
      "stateMutability": "nonpayable",
      "type": "constructor"
    },
    {
      "inputs": [
        {
          "internalType": "address",
          "name": "owner",
          "type": "address"
        }
      ],
      "name": "OwnableInvalidOwner",
      "type": "error"
    },
    {
      "inputs": [
        {
          "internalType": "address",
          "name": "account",
          "type": "address"
        }
      ],
      "name": "OwnableUnauthorizedAccount",
      "type": "error"
    },
    {
      "inputs": [],
      "name": "ReentrancyGuardReentrantCall",
      "type": "error"
    },
    {
      "inputs": [
        {
          "internalType": "address",
          "name": "token",
          "type": "address"
        }
      ],
      "name": "SafeERC20FailedOperation",
      "type": "error"
    },
    {
      "anonymous": false,
      "inputs": [
        {
          "indexed": true,
          "internalType": "address",
          "name": "voter",
          "type": "address"
        },
        {
          "indexed": false,
          "internalType": "uint256",
          "name": "amount",
          "type": "uint256"
        }
      ],
      "name": "BribeClaimed",
      "type": "event"
    },
    {
      "anonymous": false,
      "inputs": [
        {
          "indexed": true,
          "internalType": "uint256",
          "name": "epoch",
          "type": "uint256"
        },
        {
          "indexed": true,
          "internalType": "uint256",
          "name": "regionId",
          "type": "uint256"
        },
        {
          "indexed": false,
          "internalType": "uint256",
          "name": "amount",
          "type": "uint256"
        }
      ],
      "name": "BribeDeposited",
      "type": "event"
    },
    {
      "anonymous": false,
      "inputs": [
        {
          "indexed": true,
          "internalType": "uint256",
          "name": "epoch",
          "type": "uint256"
        },
        {
          "indexed": false,
          "internalType": "uint256",
          "name": "fromRegion",
          "type": "uint256"
        },
        {
          "indexed": false,
          "internalType": "uint256",
          "name": "toRegion",
          "type": "uint256"
        },
        {
          "indexed": false,
          "internalType": "uint256",
          "name": "amount",
          "type": "uint256"
        }
      ],
      "name": "BribeSeized",
      "type": "event"
    },
    {
      "anonymous": false,
      "inputs": [
        {
          "indexed": true,
          "internalType": "address",
          "name": "previousOwner",
          "type": "address"
        },
        {
          "indexed": true,
          "internalType": "address",
          "name": "newOwner",
          "type": "address"
        }
      ],
      "name": "OwnershipTransferred",
      "type": "event"
    },
    {
      "anonymous": false,
      "inputs": [
        {
          "indexed": true,
          "internalType": "address",
          "name": "voter",
          "type": "address"
        },
        {
          "indexed": true,
          "internalType": "uint256",
          "name": "regionId",
          "type": "uint256"
        },
        {
          "indexed": false,
          "internalType": "uint256",
          "name": "weight",
          "type": "uint256"
        }
      ],
      "name": "Voted",
      "type": "event"
    },
    {
      "inputs": [],
      "name": "CONTRACT_DEPLOYED",
      "outputs": [
        {
          "internalType": "uint256",
          "name": "",
          "type": "uint256"
        }
      ],
      "stateMutability": "view",
      "type": "function"
    },
    {
      "inputs": [],
      "name": "CONTRAT_DEPLOYED",
      "outputs": [
        {
          "internalType": "uint256",
          "name": "",
          "type": "uint256"
        }
      ],
      "stateMutability": "view",
      "type": "function"
    },
    {
      "inputs": [],
      "name": "EPOCH_DURATION",
      "outputs": [
        {
          "internalType": "uint256",
          "name": "",
          "type": "uint256"
        }
      ],
      "stateMutability": "view",
      "type": "function"
    },
    {
      "inputs": [
        {
          "internalType": "uint256",
          "name": "_epoch",
          "type": "uint256"
        },
        {
          "internalType": "uint256",
          "name": "_regionId",
          "type": "uint256"
        }
      ],
      "name": "claimBribe",
      "outputs": [],
      "stateMutability": "nonpayable",
      "type": "function"
    },
    {
      "inputs": [],
      "name": "currentEpochStart",
      "outputs": [
        {
          "internalType": "uint256",
          "name": "",
          "type": "uint256"
        }
      ],
      "stateMutability": "view",
      "type": "function"
    },
    {
      "inputs": [
        {
          "internalType": "uint256",
          "name": "_regionId",
          "type": "uint256"
        },
        {
          "internalType": "uint256",
          "name": "_amount",
          "type": "uint256"
        }
      ],
      "name": "depositBribe",
      "outputs": [],
      "stateMutability": "nonpayable",
      "type": "function"
    },
    {
      "inputs": [],
      "name": "getCurrentEpoch",
      "outputs": [
        {
          "internalType": "uint256",
          "name": "",
          "type": "uint256"
        }
      ],
      "stateMutability": "view",
      "type": "function"
    },
    {
      "inputs": [
        {
          "internalType": "uint256",
          "name": "_regionId",
          "type": "uint256"
        }
      ],
      "name": "getRegionWeight",
      "outputs": [
        {
          "internalType": "uint256",
          "name": "",
          "type": "uint256"
        }
      ],
      "stateMutability": "view",
      "type": "function"
    },
    {
      "inputs": [
        {
          "internalType": "uint256",
          "name": "",
          "type": "uint256"
        },
        {
          "internalType": "uint256",
          "name": "",
          "type": "uint256"
        },
        {
          "internalType": "address",
          "name": "",
          "type": "address"
        }
      ],
      "name": "hasVotedInRegion",
      "outputs": [
        {
          "internalType": "bool",
          "name": "",
          "type": "bool"
        }
      ],
      "stateMutability": "view",
      "type": "function"
    },
    {
      "inputs": [],
      "name": "mETH",
      "outputs": [
        {
          "internalType": "contract IERC20",
          "name": "",
          "type": "address"
        }
      ],
      "stateMutability": "view",
      "type": "function"
    },
    {
      "inputs": [],
      "name": "owner",
      "outputs": [
        {
          "internalType": "address",
          "name": "",
          "type": "address"
        }
      ],
      "stateMutability": "view",
      "type": "function"
    },
    {
      "inputs": [
        {
          "internalType": "uint256",
          "name": "",
          "type": "uint256"
        },
        {
          "internalType": "uint256",
          "name": "",
          "type": "uint256"
        }
      ],
      "name": "regionData",
      "outputs": [
        {
          "internalType": "uint256",
          "name": "totalVotes",
          "type": "uint256"
        },
        {
          "internalType": "uint256",
          "name": "bribeAmount",
          "type": "uint256"
        }
      ],
      "stateMutability": "view",
      "type": "function"
    },
    {
      "inputs": [],
      "name": "renounceOwnership",
      "outputs": [],
      "stateMutability": "nonpayable",
      "type": "function"
    },
    {
      "inputs": [
        {
          "internalType": "uint256",
          "name": "_fromRegion",
          "type": "uint256"
        },
        {
          "internalType": "uint256",
          "name": "_toRegion",
          "type": "uint256"
        },
        {
          "internalType": "uint256",
          "name": "_percent",
          "type": "uint256"
        }
      ],
      "name": "seizeBribe",
      "outputs": [],
      "stateMutability": "nonpayable",
      "type": "function"
    },
    {
      "inputs": [
        {
          "internalType": "address",
          "name": "_warTheater",
          "type": "address"
        }
      ],
      "name": "setWarTheater",
      "outputs": [],
      "stateMutability": "nonpayable",
      "type": "function"
    },
    {
      "inputs": [
        {
          "internalType": "address",
          "name": "newOwner",
          "type": "address"
        }
      ],
      "name": "transferOwnership",
      "outputs": [],
      "stateMutability": "nonpayable",
      "type": "function"
    },
    {
      "inputs": [
        {
          "internalType": "uint256",
          "name": "",
          "type": "uint256"
        },
        {
          "internalType": "address",
          "name": "",
          "type": "address"
        }
      ],
      "name": "userUsedPower",
      "outputs": [
        {
          "internalType": "uint256",
          "name": "",
          "type": "uint256"
        }
      ],
      "stateMutability": "view",
      "type": "function"
    },
    {
      "inputs": [
        {
          "internalType": "uint256",
          "name": "",
          "type": "uint256"
        },
        {
          "internalType": "uint256",
          "name": "",
          "type": "uint256"
        },
        {
          "internalType": "address",
          "name": "",
          "type": "address"
        }
      ],
      "name": "userVotes",
      "outputs": [
        {
          "internalType": "uint256",
          "name": "",
          "type": "uint256"
        }
      ],
      "stateMutability": "view",
      "type": "function"
    },
    {
      "inputs": [],
      "name": "veOLIG",
      "outputs": [
        {
          "internalType": "contract IVeOligarchy",
          "name": "",
          "type": "address"
        }
      ],
      "stateMutability": "view",
      "type": "function"
    },
    {
      "inputs": [
        {
          "internalType": "uint256",
          "name": "_regionId",
          "type": "uint256"
        }
      ],
      "name": "vote",
      "outputs": [],
      "stateMutability": "nonpayable",
      "type": "function"
    },
    {
      "inputs": [],
      "name": "warTheater",
      "outputs": [
        {
          "internalType": "address",
          "name": "",
          "type": "address"
        }
      ],
      "stateMutability": "view",
      "type": "function"
    }
  ],
  "bytecode": "0x60c060405234801561000f575f5ffd5b50604051610ff7380380610ff783398101604081905261002e91610106565b60015f55338061005757604051631e4fbdf760e01b81525f600482015260240160405180910390fd5b6100608161009a565b506001600160a01b03808316608052811660a05262093a806100828142610137565b61008c9190610156565b60045550504260055561017f565b600180546001600160a01b038381166001600160a01b0319831681179093556040519116919082907f8be0079c531659141344cd1fd0a4f28419497f9722a3daafe3b4186f6b6457e0905f90a35050565b80516001600160a01b0381168114610101575f5ffd5b919050565b5f5f60408385031215610117575f5ffd5b610120836100eb565b915061012e602084016100eb565b90509250929050565b5f8261015157634e487b7160e01b5f52601260045260245ffd5b500490565b808202811582820484141761017957634e487b7160e01b5f52601160045260245ffd5b92915050565b60805160a051610e426101b55f395f81816101a601526103a501525f81816101e50152818161090901526109f20152610e425ff3fe608060405234801561000f575f5ffd5b5060043610610132575f3560e01c80638da5cb5b116100b4578063c5a8e38111610079578063c5a8e381146102b6578063cfb318a1146102fc578063d530904f14610326578063d9cef58714610339578063ede193bf1461034c578063f2fde38b1461035f575f5ffd5b80638da5cb5b1461027757806391c8626514610288578063a70b9f0c1461029b578063b97dd9e2146102a5578063c1f653f1146102ad575f5ffd5b80632a964041116100fa5780632a964041146102075780635226ba6d146102105780635be12cb01461025357806361a8c8c414610266578063715018a61461026f575f5ffd5b80630121b93f146101365780630f67148b1461014b5780631ac4011f146101715780631f4b5f25146101a157806329e84867146101e0575b5f5ffd5b610149610144366004610c88565b610372565b005b61015e610159366004610c88565b6105b7565b6040519081526020015b60405180910390f35b61015e61017f366004610cba565b600960209081525f938452604080852082529284528284209052825290205481565b6101c87f000000000000000000000000000000000000000000000000000000000000000081565b6040516001600160a01b039091168152602001610168565b6101c87f000000000000000000000000000000000000000000000000000000000000000081565b61015e60035481565b61024361021e366004610cba565b600760209081525f938452604080852082529284528284209052825290205460ff1681565b6040519015158152602001610168565b6002546101c8906001600160a01b031681565b61015e60045481565b610149610607565b6001546001600160a01b03166101c8565b610149610296366004610cec565b61061a565b61015e62093a8081565b61015e61075d565b61015e60055481565b6102e76102c4366004610d15565b600660209081525f92835260408084209091529082529020805460019091015482565b60408051928352602083019190915201610168565b61015e61030a366004610d35565b600860209081525f928352604080842090915290825290205481565b610149610334366004610d15565b61077f565b610149610347366004610d5f565b610976565b61014961035a366004610d15565b6109a0565b61014961036d366004610d5f565b610a99565b61037a610ad3565b5f61038361075d565b6040516370a0823160e01b81523360048201529091505f906001600160a01b037f000000000000000000000000000000000000000000000000000000000000000016906370a0823190602401602060405180830381865afa1580156103ea573d5f5f3e3d5ffd5b505050506040513d601f19601f8201168201806040525081019061040e9190610d7f565b90505f81116104565760405162461bcd60e51b815260206004820152600f60248201526e2737903b37ba34b733903837bbb2b960891b60448201526064015b60405180910390fd5b5f828152600760209081526040808320868452825280832033845290915290205460ff16156104bc5760405162461bcd60e51b8152602060048201526012602482015271416c726561647920766f746564206865726560701b604482015260640161044d565b5f828152600860209081526040808320338452909152812080548392906104e4908490610daa565b90915550505f82815260066020908152604080832086845290915281208054839290610511908490610daa565b90915550505f828152600760209081526040808320868452825280832033808552908352818420805460ff191660011790558584526009835281842087855283528184209084529091528120805483929061056d908490610daa565b9091555050604051818152839033907fea66f58e474bc09f580000e81f31b334d171db387d0c6098ba47bd897741679b9060200160405180910390a350506105b460015f55565b50565b5f5f6105c161075d565b9050805f036105d257505f92915050565b60065f6105e0600184610dc3565b81526020019081526020015f205f8481526020019081526020015f205f0154915050919050565b61060f610afb565b6106185f610b28565b565b6002546001600160a01b031633146106675760405162461bcd60e51b815260206004820152601060248201526f27b7363c902bb0b9102a3432b0ba32b960811b604482015260640161044d565b5f61067061075d565b5f8181526006602090815260408083208884529091529020600101549091508015610756575f60646106a28584610dd6565b6106ac9190610ded565b5f8481526006602090815260408083208a84529091528120600101805492935083929091906106dc908490610dc3565b90915550505f8381526006602090815260408083208884529091528120600101805483929061070c908490610daa565b9091555050604080518781526020810187905290810182905283907fe2bb5de4553e7fb4692199df6281152f9618cb2c17759a6eaaef228ea49ad7ab9060600160405180910390a2505b5050505050565b5f62093a80600354426107709190610dc3565b61077a9190610ded565b905090565b610787610ad3565b61078f61075d565b82106107d25760405162461bcd60e51b8152602060048201526012602482015271115c1bd8da081b9bdd08199a5b9a5cda195960721b604482015260640161044d565b5f828152600760209081526040808320848452825280832033845290915290205460ff166108315760405162461bcd60e51b815260206004820152600c60248201526b446964206e6f7420766f746560a01b604482015260640161044d565b5f82815260096020908152604080832084845282528083203384529091529020548061088b5760405162461bcd60e51b8152602060048201526009602482015268139bc81dd95a59da1d60ba1b604482015260640161044d565b5f8381526006602090815260408083208584528252808320815180830190925280548083526001909101549282018390529092916108c99085610dd6565b6108d39190610ded565b5f868152600960209081526040808320888452825280832033845290915281205590508015610966576109306001600160a01b037f0000000000000000000000000000000000000000000000000000000000000000163383610b79565b60405181815233907fd7b05cdb66c570730a1d46b848da7667f00c34987279d4db7f9e7049c9eb17d09060200160405180910390a25b50505061097260015f55565b5050565b61097e610afb565b600280546001600160a01b0319166001600160a01b0392909216919091179055565b6109a8610ad3565b5f81116109e55760405162461bcd60e51b815260206004820152600b60248201526a16995c9bc8185b5bdd5b9d60aa1b604482015260640161044d565b610a1a6001600160a01b037f000000000000000000000000000000000000000000000000000000000000000016333084610bdd565b5f610a2361075d565b5f818152600660209081526040808320878452909152812060010180549293508492909190610a53908490610daa565b9091555050604051828152839082907f265e31995d948b49c781d09e0ba0b7bfcb1a993817fb3254be81fe208c5048a89060200160405180910390a35061097260015f55565b610aa1610afb565b6001600160a01b038116610aca57604051631e4fbdf760e01b81525f600482015260240161044d565b6105b481610b28565b60025f5403610af557604051633ee5aeb560e01b815260040160405180910390fd5b60025f55565b6001546001600160a01b031633146106185760405163118cdaa760e01b815233600482015260240161044d565b600180546001600160a01b038381166001600160a01b0319831681179093556040519116919082907f8be0079c531659141344cd1fd0a4f28419497f9722a3daafe3b4186f6b6457e0905f90a35050565b6040516001600160a01b03838116602483015260448201839052610bd891859182169063a9059cbb906064015b604051602081830303815290604052915060e01b6020820180516001600160e01b038381831617835250505050610c1c565b505050565b6040516001600160a01b038481166024830152838116604483015260648201839052610c169186918216906323b872dd90608401610ba6565b50505050565b5f5f60205f8451602086015f885af180610c3b576040513d5f823e3d81fd5b50505f513d91508115610c52578060011415610c5f565b6001600160a01b0384163b155b15610c1657604051635274afe760e01b81526001600160a01b038516600482015260240161044d565b5f60208284031215610c98575f5ffd5b5035919050565b80356001600160a01b0381168114610cb5575f5ffd5b919050565b5f5f5f60608486031215610ccc575f5ffd5b8335925060208401359150610ce360408501610c9f565b90509250925092565b5f5f5f60608486031215610cfe575f5ffd5b505081359360208301359350604090920135919050565b5f5f60408385031215610d26575f5ffd5b50508035926020909101359150565b5f5f60408385031215610d46575f5ffd5b82359150610d5660208401610c9f565b90509250929050565b5f60208284031215610d6f575f5ffd5b610d7882610c9f565b9392505050565b5f60208284031215610d8f575f5ffd5b5051919050565b634e487b7160e01b5f52601160045260245ffd5b80820180821115610dbd57610dbd610d96565b92915050565b81810381811115610dbd57610dbd610d96565b8082028115828204841417610dbd57610dbd610d96565b5f82610e0757634e487b7160e01b5f52601260045260245ffd5b50049056fea264697066735822122046bea40917e6aeed5f17da7237c693098b12bccafad9aefe23fa7510e961b55864736f6c634300081c0033",
  "linkReferences": {},
  "deployedLinkReferences": {},
  "immutableReferences": {
    "911": [
      {
        "length": 32,
        "start": 485
      },
      {
        "length": 32,
        "start": 2313
      },
      {
        "length": 32,
        "start": 2546
      }
    ],
    "914": [
      {
        "length": 32,
        "start": 422
      },
      {
        "length": 32,
        "start": 933
      }
    ]
  },
  "inputSourceName": "project/contracts/OligarchyVoter.sol",
  "buildInfoId": "solc-0_8_28-4e8eb9b8e75d58c5b8b0d3a9ea3a1cb72558ca52"
}