{
  "_format": "hh3-artifact-1",
  "contractName": "GameStore",
  "sourceName": "contracts/GameStore.sol",
  "abi": [
    {
      "inputs": [
        {
          "internalType": "address",
          "name": "_oligToken",
          "type": "address"
        }
      ],
      "stateMutability": "nonpayable",
      "type": "constructor"
    },
    {
      "inputs": [
        {
          "internalType": "address",
          "name": "owner",
          "type": "address"
        }
      ],
      "name": "OwnableInvalidOwner",
      "type": "error"
    },
    {
      "inputs": [
        {
          "internalType": "address",
          "name": "account",
          "type": "address"
        }
      ],
      "name": "OwnableUnauthorizedAccount",
      "type": "error"
    },
    {
      "inputs": [],
      "name": "ReentrancyGuardReentrantCall",
      "type": "error"
    },
    {
      "anonymous": false,
      "inputs": [
        {
          "indexed": false,
          "internalType": "uint256",
          "name": "itemId",
          "type": "uint256"
        },
        {
          "indexed": false,
          "internalType": "string",
          "name": "name",
          "type": "string"
        },
        {
          "indexed": false,
          "internalType": "uint256",
          "name": "price",
          "type": "uint256"
        }
      ],
      "name": "ItemAdded",
      "type": "event"
    },
    {
      "anonymous": false,
      "inputs": [
        {
          "indexed": true,
          "internalType": "address",
          "name": "buyer",
          "type": "address"
        },
        {
          "indexed": true,
          "internalType": "uint256",
          "name": "itemId",
          "type": "uint256"
        },
        {
          "indexed": false,
          "internalType": "uint256",
          "name": "price",
          "type": "uint256"
        }
      ],
      "name": "ItemPurchased",
      "type": "event"
    },
    {
      "anonymous": false,
      "inputs": [
        {
          "indexed": true,
          "internalType": "address",
          "name": "previousOwner",
          "type": "address"
        },
        {
          "indexed": true,
          "internalType": "address",
          "name": "newOwner",
          "type": "address"
        }
      ],
      "name": "OwnershipTransferred",
      "type": "event"
    },
    {
      "inputs": [
        {
          "internalType": "string",
          "name": "_name",
          "type": "string"
        },
        {
          "internalType": "uint256",
          "name": "_price",
          "type": "uint256"
        },
        {
          "internalType": "bool",
          "name": "_isConsumable",
          "type": "bool"
        }
      ],
      "name": "addItem",
      "outputs": [],
      "stateMutability": "nonpayable",
      "type": "function"
    },
    {
      "inputs": [
        {
          "internalType": "uint256",
          "name": "_itemId",
          "type": "uint256"
        }
      ],
      "name": "buyItem",
      "outputs": [],
      "stateMutability": "nonpayable",
      "type": "function"
    },
    {
      "inputs": [
        {
          "internalType": "address",
          "name": "",
          "type": "address"
        },
        {
          "internalType": "uint256",
          "name": "",
          "type": "uint256"
        }
      ],
      "name": "hasPurchased",
      "outputs": [
        {
          "internalType": "bool",
          "name": "",
          "type": "bool"
        }
      ],
      "stateMutability": "view",
      "type": "function"
    },
    {
      "inputs": [
        {
          "internalType": "uint256",
          "name": "",
          "type": "uint256"
        }
      ],
      "name": "items",
      "outputs": [
        {
          "internalType": "string",
          "name": "name",
          "type": "string"
        },
        {
          "internalType": "uint256",
          "name": "price",
          "type": "uint256"
        },
        {
          "internalType": "bool",
          "name": "isActive",
          "type": "bool"
        },
        {
          "internalType": "bool",
          "name": "isConsumable",
          "type": "bool"
        }
      ],
      "stateMutability": "view",
      "type": "function"
    },
    {
      "inputs": [],
      "name": "oligToken",
      "outputs": [
        {
          "internalType": "contract ERC20Burnable",
          "name": "",
          "type": "address"
        }
      ],
      "stateMutability": "view",
      "type": "function"
    },
    {
      "inputs": [],
      "name": "owner",
      "outputs": [
        {
          "internalType": "address",
          "name": "",
          "type": "address"
        }
      ],
      "stateMutability": "view",
      "type": "function"
    },
    {
      "inputs": [],
      "name": "renounceOwnership",
      "outputs": [],
      "stateMutability": "nonpayable",
      "type": "function"
    },
    {
      "inputs": [],
      "name": "totalItems",
      "outputs": [
        {
          "internalType": "uint256",
          "name": "",
          "type": "uint256"
        }
      ],
      "stateMutability": "view",
      "type": "function"
    },
    {
      "inputs": [
        {
          "internalType": "address",
          "name": "newOwner",
          "type": "address"
        }
      ],
      "name": "transferOwnership",
      "outputs": [],
      "stateMutability": "nonpayable",
      "type": "function"
    }
  ],
  "bytecode": "0x60a060405234801561000f575f5ffd5b50604051610b2e380380610b2e83398101604081905261002e916100c1565b338061005357604051631e4fbdf760e01b81525f600482015260240160405180910390fd5b61005c81610072565b50600180556001600160a01b03166080526100ee565b5f80546001600160a01b038381166001600160a01b0319831681178455604051919092169283917f8be0079c531659141344cd1fd0a4f28419497f9722a3daafe3b4186f6b6457e09190a35050565b5f602082840312156100d1575f5ffd5b81516001600160a01b03811681146100e7575f5ffd5b9392505050565b608051610a2161010d5f395f818161015601526105090152610a215ff3fe608060405234801561000f575f5ffd5b5060043610610090575f3560e01c80638da5cb5b116100635780638da5cb5b1461010a578063bfb231d21461012e578063c6c1420814610151578063e7fb74c714610178578063f2fde38b1461018b575f5ffd5b806311923132146100945780632799276d146100d6578063715018a6146100ed57806382655d06146100f7575b5f5ffd5b6100c16100a23660046106b7565b600360209081525f928352604080842090915290825290205460ff1681565b60405190151581526020015b60405180910390f35b6100df60045481565b6040519081526020016100cd565b6100f561019e565b005b6100f5610105366004610702565b6101b1565b5f546001600160a01b03165b6040516001600160a01b0390911681526020016100cd565b61014161013c3660046107cb565b610290565b6040516100cd9493929190610810565b6101167f000000000000000000000000000000000000000000000000000000000000000081565b6100f56101863660046107cb565b610344565b6100f5610199366004610840565b6105bd565b6101a66105f7565b6101af5f610623565b565b6101b96105f7565b60048054905f6101c883610860565b909155505060408051608081018252848152602080820185905260018284015283151560608301526004545f9081526002909152919091208151819061020e9082610908565b50602082015160018201556040808301516002909201805460609094015115156101000261ff00199315159390931661ffff19909416939093179190911790915560045490517f0444434676a57f70f8479401c50fb4add3e31052f88f4b35e155b7759e5968e59161028391869086906109c3565b60405180910390a1505050565b60026020525f90815260409020805481906102aa90610884565b80601f01602080910402602001604051908101604052809291908181526020018280546102d690610884565b80156103215780601f106102f857610100808354040283529160200191610321565b820191905f5260205f20905b81548152906001019060200180831161030457829003601f168201915b50505050600183015460029093015491929160ff80821692506101009091041684565b61034c610672565b5f8181526002602052604080822081516080810190925280548290829061037290610884565b80601f016020809104026020016040519081016040528092919081815260200182805461039e90610884565b80156103e95780601f106103c0576101008083540402835291602001916103e9565b820191905f5260205f20905b8154815290600101906020018083116103cc57829003601f168201915b50505091835250506001820154602082015260029091015460ff80821615156040808501919091526101009092041615156060909201919091528101519091506104675760405162461bcd60e51b815260206004820152600a6024820152694e6f742061637469766560b01b60448201526064015b60405180910390fd5b80606001516104e757335f90815260036020908152604080832085845290915290205460ff16156104c25760405162461bcd60e51b815260206004820152600560248201526413dddb995960da1b604482015260640161045e565b335f9081526003602090815260408083208584529091529020805460ff191660011790555b602081015160405163079cc67960e41b815233600482015260248101919091527f00000000000000000000000000000000000000000000000000000000000000006001600160a01b0316906379cc6790906044015f604051808303815f87803b158015610552575f5ffd5b505af1158015610564573d5f5f3e3d5ffd5b5050505081336001600160a01b03167f1452773cf753d0d7c71ed9990f7c7e2bdde4a2d08d187b3647953877e400488d83602001516040516105a891815260200190565b60405180910390a3506105ba60018055565b50565b6105c56105f7565b6001600160a01b0381166105ee57604051631e4fbdf760e01b81525f600482015260240161045e565b6105ba81610623565b5f546001600160a01b031633146101af5760405163118cdaa760e01b815233600482015260240161045e565b5f80546001600160a01b038381166001600160a01b0319831681178455604051919092169283917f8be0079c531659141344cd1fd0a4f28419497f9722a3daafe3b4186f6b6457e09190a35050565b60026001540361069557604051633ee5aeb560e01b815260040160405180910390fd5b6002600155565b80356001600160a01b03811681146106b2575f5ffd5b919050565b5f5f604083850312156106c8575f5ffd5b6106d18361069c565b946020939093013593505050565b634e487b7160e01b5f52604160045260245ffd5b803580151581146106b2575f5ffd5b5f5f5f60608486031215610714575f5ffd5b833567ffffffffffffffff81111561072a575f5ffd5b8401601f8101861361073a575f5ffd5b803567ffffffffffffffff811115610754576107546106df565b604051601f8201601f19908116603f0116810167ffffffffffffffff81118282101715610783576107836106df565b60405281815282820160200188101561079a575f5ffd5b816020840160208301375f6020928201830152945085013592506107c29050604085016106f3565b90509250925092565b5f602082840312156107db575f5ffd5b5035919050565b5f81518084528060208401602086015e5f602082860101526020601f19601f83011685010191505092915050565b608081525f61082260808301876107e2565b60208301959095525091151560408301521515606090910152919050565b5f60208284031215610850575f5ffd5b6108598261069c565b9392505050565b5f6001820161087d57634e487b7160e01b5f52601160045260245ffd5b5060010190565b600181811c9082168061089857607f821691505b6020821081036108b657634e487b7160e01b5f52602260045260245ffd5b50919050565b601f82111561090357805f5260205f20601f840160051c810160208510156108e15750805b601f840160051c820191505b81811015610900575f81556001016108ed565b50505b505050565b815167ffffffffffffffff811115610922576109226106df565b610936816109308454610884565b846108bc565b6020601f821160018114610968575f83156109515750848201515b5f19600385901b1c1916600184901b178455610900565b5f84815260208120601f198516915b828110156109975787850151825560209485019460019092019101610977565b50848210156109b457868401515f19600387901b60f8161c191681555b50505050600190811b01905550565b838152606060208201525f6109db60608301856107e2565b905082604083015294935050505056fea2646970667358221220d932b68fb34b7ab0c9d31d88f8331d85092a7d2a0631ed0d99fb9e8e42de29eb64736f6c634300081c0033",
  "linkReferences": {},
  "deployedLinkReferences": {},
  "immutableReferences": {
    "1060": [
      {
        "length": 32,
        "start": 342
      },
      {
        "length": 32,
        "start": 1289
      }
    ]
  },
  "inputSourceName": "project/contracts/GameStore.sol",
  "buildInfoId": "solc-0_8_28-de2994920a64984f7417174aa3d5731992588908"
}