{
  "_format": "hh3-artifact-1",
  "contractName": "VeOligarchy",
  "sourceName": "contracts/VeOligarchy.sol",
  "abi": [
    {
      "inputs": [
        {
          "internalType": "address",
          "name": "_tokenAddr",
          "type": "address"
        }
      ],
      "stateMutability": "nonpayable",
      "type": "constructor"
    },
    {
      "inputs": [],
      "name": "ReentrancyGuardReentrantCall",
      "type": "error"
    },
    {
      "inputs": [
        {
          "internalType": "address",
          "name": "token",
          "type": "address"
        }
      ],
      "name": "SafeERC20FailedOperation",
      "type": "error"
    },
    {
      "anonymous": false,
      "inputs": [
        {
          "indexed": true,
          "internalType": "address",
          "name": "provider",
          "type": "address"
        },
        {
          "indexed": false,
          "internalType": "uint256",
          "name": "value",
          "type": "uint256"
        },
        {
          "indexed": false,
          "internalType": "uint256",
          "name": "locktime",
          "type": "uint256"
        }
      ],
      "name": "Deposit",
      "type": "event"
    },
    {
      "anonymous": false,
      "inputs": [
        {
          "indexed": true,
          "internalType": "address",
          "name": "provider",
          "type": "address"
        },
        {
          "indexed": false,
          "internalType": "uint256",
          "name": "value",
          "type": "uint256"
        }
      ],
      "name": "Withdraw",
      "type": "event"
    },
    {
      "inputs": [],
      "name": "MAX_LOCK",
      "outputs": [
        {
          "internalType": "uint256",
          "name": "",
          "type": "uint256"
        }
      ],
      "stateMutability": "view",
      "type": "function"
    },
    {
      "inputs": [],
      "name": "WEEK",
      "outputs": [
        {
          "internalType": "uint256",
          "name": "",
          "type": "uint256"
        }
      ],
      "stateMutability": "view",
      "type": "function"
    },
    {
      "inputs": [
        {
          "internalType": "address",
          "name": "_user",
          "type": "address"
        }
      ],
      "name": "balanceOf",
      "outputs": [
        {
          "internalType": "uint256",
          "name": "",
          "type": "uint256"
        }
      ],
      "stateMutability": "view",
      "type": "function"
    },
    {
      "inputs": [
        {
          "internalType": "uint256",
          "name": "_value",
          "type": "uint256"
        },
        {
          "internalType": "uint256",
          "name": "_unlockTime",
          "type": "uint256"
        }
      ],
      "name": "createLock",
      "outputs": [],
      "stateMutability": "nonpayable",
      "type": "function"
    },
    {
      "inputs": [
        {
          "internalType": "address",
          "name": "",
          "type": "address"
        }
      ],
      "name": "locked",
      "outputs": [
        {
          "internalType": "int128",
          "name": "amount",
          "type": "int128"
        },
        {
          "internalType": "uint256",
          "name": "end",
          "type": "uint256"
        }
      ],
      "stateMutability": "view",
      "type": "function"
    },
    {
      "inputs": [],
      "name": "token",
      "outputs": [
        {
          "internalType": "contract IERC20",
          "name": "",
          "type": "address"
        }
      ],
      "stateMutability": "view",
      "type": "function"
    },
    {
      "inputs": [],
      "name": "totalSupply",
      "outputs": [
        {
          "internalType": "uint256",
          "name": "",
          "type": "uint256"
        }
      ],
      "stateMutability": "view",
      "type": "function"
    },
    {
      "inputs": [],
      "name": "withdraw",
      "outputs": [],
      "stateMutability": "nonpayable",
      "type": "function"
    }
  ],
  "bytecode": "0x60a0604052348015600e575f5ffd5b50604051610835380380610835833981016040819052602b91603f565b60015f556001600160a01b0316608052606a565b5f60208284031215604e575f5ffd5b81516001600160a01b03811681146063575f5ffd5b9392505050565b6080516107a56100905f395f818161013601528181610272015261049e01526107a55ff3fe608060405234801561000f575f5ffd5b5060043610610085575f3560e01c8063b52c05fe11610058578063b52c05fe146100cd578063cbf9fe5f146100e0578063f4359ce514610127578063fc0c546a14610131575f5ffd5b806318160ddd146100895780633ccfd60b146100a557806365a5d5f0146100af57806370a08231146100ba575b5f5ffd5b61009260025481565b6040519081526020015b60405180910390f35b6100ad610170565b005b6100926301e1338081565b6100926100c83660046106ac565b6102db565b6100ad6100db3660046106d9565b610358565b61010d6100ee3660046106ac565b600160208190525f91825260409091208054910154600f9190910b9082565b60408051600f9390930b835260208301919091520161009c565b61009262093a8081565b6101587f000000000000000000000000000000000000000000000000000000000000000081565b6040516001600160a01b03909116815260200161009c565b610178610575565b335f90815260016020818152604080842081518083019092528054600f0b8083529301549181019190915291126101e05760405162461bcd60e51b81526020600482015260076024820152664e6f206c6f636b60c81b60448201526064015b60405180910390fd5b80602001514210156102225760405162461bcd60e51b815260206004820152600b60248201526a139bdd08195e1c1a5c995960aa1b60448201526064016101d7565b8051335f908152600160208190526040822080546001600160801b03191681550181905560028054600f9390930b9283929061025f90849061070d565b9091555061029990506001600160a01b037f000000000000000000000000000000000000000000000000000000000000000016338361059d565b60405181815233907f884edad9ce6fa2440d8a54cc123490eb96d2768479d49ff9c7366125a94243649060200160405180910390a250506102d960015f55565b565b6001600160a01b0381165f90815260016020818152604080842081518083019092528054600f0b825290920154908201819052421061031c57505f92915050565b5f42826020015161032d919061070d565b90506301e1338081835f0151600f0b6103469190610726565b610350919061073d565b949350505050565b610360610575565b5f821161039b5760405162461bcd60e51b8152602060048201526009602482015268056616c7565203e20360bc1b60448201526064016101d7565b335f90815260016020526040902054600f0b156103ef5760405162461bcd60e51b815260206004820152601260248201527115da5d1a191c985dc81bdb1908199a5c9cdd60721b60448201526064016101d7565b42811161042c5760405162461bcd60e51b815260206004820152600b60248201526a467574757265206f6e6c7960a81b60448201526064016101d7565b61043a6301e133804261075c565b8111156104765760405162461bcd60e51b815260206004820152600a60248201526926b0bc1018903cb2b0b960b11b60448201526064016101d7565b5f62093a80610485818461073d565b61048f9190610726565b90506104c66001600160a01b037f000000000000000000000000000000000000000000000000000000000000000016333086610601565b604080518082018252600f85900b81526020808201848152335f908152600192839052938420925183546001600160801b0319166fffffffffffffffffffffffffffffffff909116178355519101556002805485929061052790849061075c565b9091555050604080518481526020810183905233917f90890809c654f11d6e72a28fa60149770a0d11ec6c92319d6ceb2bb0a4ea1a15910160405180910390a25061057160015f55565b5050565b60025f540361059757604051633ee5aeb560e01b815260040160405180910390fd5b60025f55565b6040516001600160a01b038381166024830152604482018390526105fc91859182169063a9059cbb906064015b604051602081830303815290604052915060e01b6020820180516001600160e01b038381831617835250505050610640565b505050565b6040516001600160a01b03848116602483015283811660448301526064820183905261063a9186918216906323b872dd906084016105ca565b50505050565b5f5f60205f8451602086015f885af18061065f576040513d5f823e3d81fd5b50505f513d91508115610676578060011415610683565b6001600160a01b0384163b155b1561063a57604051635274afe760e01b81526001600160a01b03851660048201526024016101d7565b5f602082840312156106bc575f5ffd5b81356001600160a01b03811681146106d2575f5ffd5b9392505050565b5f5f604083850312156106ea575f5ffd5b50508035926020909101359150565b634e487b7160e01b5f52601160045260245ffd5b81810381811115610720576107206106f9565b92915050565b8082028115828204841417610720576107206106f9565b5f8261075757634e487b7160e01b5f52601260045260245ffd5b500490565b80820180821115610720576107206106f956fea2646970667358221220a820355d94d5e7e77ab874e17749e321adeab72727343161675cbf0fb443b3e064736f6c634300081c0033",
  "linkReferences": {},
  "deployedLinkReferences": {},
  "immutableReferences": {
    "729": [
      {
        "length": 32,
        "start": 310
      },
      {
        "length": 32,
        "start": 626
      },
      {
        "length": 32,
        "start": 1182
      }
    ]
  },
  "inputSourceName": "project/contracts/VeOligarchy.sol",
  "buildInfoId": "solc-0_8_28-e8ed6e5847d556755e3a1ec9af8fe1cf0d4bba82"
}