{
  "_format": "hh3-artifact-1",
  "contractName": "OligarchyToken",
  "sourceName": "contracts/OligarchyToken.sol",
  "abi": [
    {
      "inputs": [
        {
          "internalType": "address",
          "name": "initialOwner",
          "type": "address"
        }
      ],
      "stateMutability": "nonpayable",
      "type": "constructor"
    },
    {
      "inputs": [],
      "name": "AccessControlBadConfirmation",
      "type": "error"
    },
    {
      "inputs": [
        {
          "internalType": "address",
          "name": "account",
          "type": "address"
        },
        {
          "internalType": "bytes32",
          "name": "neededRole",
          "type": "bytes32"
        }
      ],
      "name": "AccessControlUnauthorizedAccount",
      "type": "error"
    },
    {
      "inputs": [],
      "name": "ECDSAInvalidSignature",
      "type": "error"
    },
    {
      "inputs": [
        {
          "internalType": "uint256",
          "name": "length",
          "type": "uint256"
        }
      ],
      "name": "ECDSAInvalidSignatureLength",
      "type": "error"
    },
    {
      "inputs": [
        {
          "internalType": "bytes32",
          "name": "s",
          "type": "bytes32"
        }
      ],
      "name": "ECDSAInvalidSignatureS",
      "type": "error"
    },
    {
      "inputs": [
        {
          "internalType": "address",
          "name": "spender",
          "type": "address"
        },
        {
          "internalType": "uint256",
          "name": "allowance",
          "type": "uint256"
        },
        {
          "internalType": "uint256",
          "name": "needed",
          "type": "uint256"
        }
      ],
      "name": "ERC20InsufficientAllowance",
      "type": "error"
    },
    {
      "inputs": [
        {
          "internalType": "address",
          "name": "sender",
          "type": "address"
        },
        {
          "internalType": "uint256",
          "name": "balance",
          "type": "uint256"
        },
        {
          "internalType": "uint256",
          "name": "needed",
          "type": "uint256"
        }
      ],
      "name": "ERC20InsufficientBalance",
      "type": "error"
    },
    {
      "inputs": [
        {
          "internalType": "address",
          "name": "approver",
          "type": "address"
        }
      ],
      "name": "ERC20InvalidApprover",
      "type": "error"
    },
    {
      "inputs": [
        {
          "internalType": "address",
          "name": "receiver",
          "type": "address"
        }
      ],
      "name": "ERC20InvalidReceiver",
      "type": "error"
    },
    {
      "inputs": [
        {
          "internalType": "address",
          "name": "sender",
          "type": "address"
        }
      ],
      "name": "ERC20InvalidSender",
      "type": "error"
    },
    {
      "inputs": [
        {
          "internalType": "address",
          "name": "spender",
          "type": "address"
        }
      ],
      "name": "ERC20InvalidSpender",
      "type": "error"
    },
    {
      "inputs": [
        {
          "internalType": "uint256",
          "name": "deadline",
          "type": "uint256"
        }
      ],
      "name": "ERC2612ExpiredSignature",
      "type": "error"
    },
    {
      "inputs": [
        {
          "internalType": "address",
          "name": "signer",
          "type": "address"
        },
        {
          "internalType": "address",
          "name": "owner",
          "type": "address"
        }
      ],
      "name": "ERC2612InvalidSigner",
      "type": "error"
    },
    {
      "inputs": [
        {
          "internalType": "address",
          "name": "account",
          "type": "address"
        },
        {
          "internalType": "uint256",
          "name": "currentNonce",
          "type": "uint256"
        }
      ],
      "name": "InvalidAccountNonce",
      "type": "error"
    },
    {
      "inputs": [],
      "name": "InvalidShortString",
      "type": "error"
    },
    {
      "inputs": [
        {
          "internalType": "string",
          "name": "str",
          "type": "string"
        }
      ],
      "name": "StringTooLong",
      "type": "error"
    },
    {
      "anonymous": false,
      "inputs": [
        {
          "indexed": true,
          "internalType": "address",
          "name": "owner",
          "type": "address"
        },
        {
          "indexed": true,
          "internalType": "address",
          "name": "spender",
          "type": "address"
        },
        {
          "indexed": false,
          "internalType": "uint256",
          "name": "value",
          "type": "uint256"
        }
      ],
      "name": "Approval",
      "type": "event"
    },
    {
      "anonymous": false,
      "inputs": [],
      "name": "EIP712DomainChanged",
      "type": "event"
    },
    {
      "anonymous": false,
      "inputs": [
        {
          "indexed": true,
          "internalType": "bytes32",
          "name": "role",
          "type": "bytes32"
        },
        {
          "indexed": true,
          "internalType": "bytes32",
          "name": "previousAdminRole",
          "type": "bytes32"
        },
        {
          "indexed": true,
          "internalType": "bytes32",
          "name": "newAdminRole",
          "type": "bytes32"
        }
      ],
      "name": "RoleAdminChanged",
      "type": "event"
    },
    {
      "anonymous": false,
      "inputs": [
        {
          "indexed": true,
          "internalType": "bytes32",
          "name": "role",
          "type": "bytes32"
        },
        {
          "indexed": true,
          "internalType": "address",
          "name": "account",
          "type": "address"
        },
        {
          "indexed": true,
          "internalType": "address",
          "name": "sender",
          "type": "address"
        }
      ],
      "name": "RoleGranted",
      "type": "event"
    },
    {
      "anonymous": false,
      "inputs": [
        {
          "indexed": true,
          "internalType": "bytes32",
          "name": "role",
          "type": "bytes32"
        },
        {
          "indexed": true,
          "internalType": "address",
          "name": "account",
          "type": "address"
        },
        {
          "indexed": true,
          "internalType": "address",
          "name": "sender",
          "type": "address"
        }
      ],
      "name": "RoleRevoked",
      "type": "event"
    },
    {
      "anonymous": false,
      "inputs": [
        {
          "indexed": true,
          "internalType": "address",
          "name": "from",
          "type": "address"
        },
        {
          "indexed": true,
          "internalType": "address",
          "name": "to",
          "type": "address"
        },
        {
          "indexed": false,
          "internalType": "uint256",
          "name": "value",
          "type": "uint256"
        }
      ],
      "name": "Transfer",
      "type": "event"
    },
    {
      "inputs": [],
      "name": "DEFAULT_ADMIN_ROLE",
      "outputs": [
        {
          "internalType": "bytes32",
          "name": "",
          "type": "bytes32"
        }
      ],
      "stateMutability": "view",
      "type": "function"
    },
    {
      "inputs": [],
      "name": "DOMAIN_SEPARATOR",
      "outputs": [
        {
          "internalType": "bytes32",
          "name": "",
          "type": "bytes32"
        }
      ],
      "stateMutability": "view",
      "type": "function"
    },
    {
      "inputs": [],
      "name": "MINTER_ROLE",
      "outputs": [
        {
          "internalType": "bytes32",
          "name": "",
          "type": "bytes32"
        }
      ],
      "stateMutability": "view",
      "type": "function"
    },
    {
      "inputs": [
        {
          "internalType": "address",
          "name": "owner",
          "type": "address"
        },
        {
          "internalType": "address",
          "name": "spender",
          "type": "address"
        }
      ],
      "name": "allowance",
      "outputs": [
        {
          "internalType": "uint256",
          "name": "",
          "type": "uint256"
        }
      ],
      "stateMutability": "view",
      "type": "function"
    },
    {
      "inputs": [
        {
          "internalType": "address",
          "name": "spender",
          "type": "address"
        },
        {
          "internalType": "uint256",
          "name": "value",
          "type": "uint256"
        }
      ],
      "name": "approve",
      "outputs": [
        {
          "internalType": "bool",
          "name": "",
          "type": "bool"
        }
      ],
      "stateMutability": "nonpayable",
      "type": "function"
    },
    {
      "inputs": [
        {
          "internalType": "address",
          "name": "account",
          "type": "address"
        }
      ],
      "name": "balanceOf",
      "outputs": [
        {
          "internalType": "uint256",
          "name": "",
          "type": "uint256"
        }
      ],
      "stateMutability": "view",
      "type": "function"
    },
    {
      "inputs": [
        {
          "internalType": "uint256",
          "name": "value",
          "type": "uint256"
        }
      ],
      "name": "burn",
      "outputs": [],
      "stateMutability": "nonpayable",
      "type": "function"
    },
    {
      "inputs": [
        {
          "internalType": "address",
          "name": "from",
          "type": "address"
        },
        {
          "internalType": "uint256",
          "name": "amount",
          "type": "uint256"
        }
      ],
      "name": "burn",
      "outputs": [],
      "stateMutability": "nonpayable",
      "type": "function"
    },
    {
      "inputs": [
        {
          "internalType": "address",
          "name": "account",
          "type": "address"
        },
        {
          "internalType": "uint256",
          "name": "value",
          "type": "uint256"
        }
      ],
      "name": "burnFrom",
      "outputs": [],
      "stateMutability": "nonpayable",
      "type": "function"
    },
    {
      "inputs": [],
      "name": "decimals",
      "outputs": [
        {
          "internalType": "uint8",
          "name": "",
          "type": "uint8"
        }
      ],
      "stateMutability": "view",
      "type": "function"
    },
    {
      "inputs": [],
      "name": "eip712Domain",
      "outputs": [
        {
          "internalType": "bytes1",
          "name": "fields",
          "type": "bytes1"
        },
        {
          "internalType": "string",
          "name": "name",
          "type": "string"
        },
        {
          "internalType": "string",
          "name": "version",
          "type": "string"
        },
        {
          "internalType": "uint256",
          "name": "chainId",
          "type": "uint256"
        },
        {
          "internalType": "address",
          "name": "verifyingContract",
          "type": "address"
        },
        {
          "internalType": "bytes32",
          "name": "salt",
          "type": "bytes32"
        },
        {
          "internalType": "uint256[]",
          "name": "extensions",
          "type": "uint256[]"
        }
      ],
      "stateMutability": "view",
      "type": "function"
    },
    {
      "inputs": [
        {
          "internalType": "bytes32",
          "name": "role",
          "type": "bytes32"
        }
      ],
      "name": "getRoleAdmin",
      "outputs": [
        {
          "internalType": "bytes32",
          "name": "",
          "type": "bytes32"
        }
      ],
      "stateMutability": "view",
      "type": "function"
    },
    {
      "inputs": [
        {
          "internalType": "bytes32",
          "name": "role",
          "type": "bytes32"
        },
        {
          "internalType": "address",
          "name": "account",
          "type": "address"
        }
      ],
      "name": "grantRole",
      "outputs": [],
      "stateMutability": "nonpayable",
      "type": "function"
    },
    {
      "inputs": [
        {
          "internalType": "bytes32",
          "name": "role",
          "type": "bytes32"
        },
        {
          "internalType": "address",
          "name": "account",
          "type": "address"
        }
      ],
      "name": "hasRole",
      "outputs": [
        {
          "internalType": "bool",
          "name": "",
          "type": "bool"
        }
      ],
      "stateMutability": "view",
      "type": "function"
    },
    {
      "inputs": [
        {
          "internalType": "address",
          "name": "to",
          "type": "address"
        },
        {
          "internalType": "uint256",
          "name": "amount",
          "type": "uint256"
        }
      ],
      "name": "mint",
      "outputs": [],
      "stateMutability": "nonpayable",
      "type": "function"
    },
    {
      "inputs": [],
      "name": "name",
      "outputs": [
        {
          "internalType": "string",
          "name": "",
          "type": "string"
        }
      ],
      "stateMutability": "view",
      "type": "function"
    },
    {
      "inputs": [
        {
          "internalType": "address",
          "name": "owner",
          "type": "address"
        }
      ],
      "name": "nonces",
      "outputs": [
        {
          "internalType": "uint256",
          "name": "",
          "type": "uint256"
        }
      ],
      "stateMutability": "view",
      "type": "function"
    },
    {
      "inputs": [
        {
          "internalType": "address",
          "name": "owner",
          "type": "address"
        },
        {
          "internalType": "address",
          "name": "spender",
          "type": "address"
        },
        {
          "internalType": "uint256",
          "name": "value",
          "type": "uint256"
        },
        {
          "internalType": "uint256",
          "name": "deadline",
          "type": "uint256"
        },
        {
          "internalType": "uint8",
          "name": "v",
          "type": "uint8"
        },
        {
          "internalType": "bytes32",
          "name": "r",
          "type": "bytes32"
        },
        {
          "internalType": "bytes32",
          "name": "s",
          "type": "bytes32"
        }
      ],
      "name": "permit",
      "outputs": [],
      "stateMutability": "nonpayable",
      "type": "function"
    },
    {
      "inputs": [
        {
          "internalType": "bytes32",
          "name": "role",
          "type": "bytes32"
        },
        {
          "internalType": "address",
          "name": "callerConfirmation",
          "type": "address"
        }
      ],
      "name": "renounceRole",
      "outputs": [],
      "stateMutability": "nonpayable",
      "type": "function"
    },
    {
      "inputs": [
        {
          "internalType": "bytes32",
          "name": "role",
          "type": "bytes32"
        },
        {
          "internalType": "address",
          "name": "account",
          "type": "address"
        }
      ],
      "name": "revokeRole",
      "outputs": [],
      "stateMutability": "nonpayable",
      "type": "function"
    },
    {
      "inputs": [
        {
          "internalType": "bytes4",
          "name": "interfaceId",
          "type": "bytes4"
        }
      ],
      "name": "supportsInterface",
      "outputs": [
        {
          "internalType": "bool",
          "name": "",
          "type": "bool"
        }
      ],
      "stateMutability": "view",
      "type": "function"
    },
    {
      "inputs": [],
      "name": "symbol",
      "outputs": [
        {
          "internalType": "string",
          "name": "",
          "type": "string"
        }
      ],
      "stateMutability": "view",
      "type": "function"
    },
    {
      "inputs": [],
      "name": "totalSupply",
      "outputs": [
        {
          "internalType": "uint256",
          "name": "",
          "type": "uint256"
        }
      ],
      "stateMutability": "view",
      "type": "function"
    },
    {
      "inputs": [
        {
          "internalType": "address",
          "name": "to",
          "type": "address"
        },
        {
          "internalType": "uint256",
          "name": "value",
          "type": "uint256"
        }
      ],
      "name": "transfer",
      "outputs": [
        {
          "internalType": "bool",
          "name": "",
          "type": "bool"
        }
      ],
      "stateMutability": "nonpayable",
      "type": "function"
    },
    {
      "inputs": [
        {
          "internalType": "address",
          "name": "from",
          "type": "address"
        },
        {
          "internalType": "address",
          "name": "to",
          "type": "address"
        },
        {
          "internalType": "uint256",
          "name": "value",
          "type": "uint256"
        }
      ],
      "name": "transferFrom",
      "outputs": [
        {
          "internalType": "bool",
          "name": "",
          "type": "bool"
        }
      ],
      "stateMutability": "nonpayable",
      "type": "function"
    }
  ],
  "bytecode": "0x610160604052348015610010575f5ffd5b506040516118ac3803806118ac83398101604081905261002f916102e7565b6040518060400160405280600f81526020016e27b634b3b0b931b43c902a37b5b2b760891b81525080604051806040016040528060018152602001603160f81b8152506040518060400160405280600f81526020016e27b634b3b0b931b43c902a37b5b2b760891b815250604051806040016040528060048152602001634f4c494760e01b81525081600390816100c691906103ac565b5060046100d382826103ac565b506100e3915083905060066101c4565b610120526100f28160076101c4565b61014052815160208084019190912060e052815190820120610100524660a05261017e60e05161010051604080517f8b73c3c69bb8fe3d512ecc4cf759cc79239f7b179b0ffacaa9a75d522b39400f60208201529081019290925260608201524660808201523060a08201525f9060c00160405160208183030381529060405280519060200120905090565b60805250503060c052506101925f826101f6565b506101bd7f9f2df0fed2c77648de5860a4cc508cd0818c85b8b8a1ab4ceeef8d981c8956a6826101f6565b50506104be565b5f6020835110156101df576101d8836102a1565b90506101f0565b816101ea84826103ac565b5060ff90505b92915050565b5f8281526005602090815260408083206001600160a01b038516845290915281205460ff1661029a575f8381526005602090815260408083206001600160a01b03861684529091529020805460ff191660011790556102523390565b6001600160a01b0316826001600160a01b0316847f2f8788117e7eff1d82e926ec794901d17c78024a50270940304540a733656f0d60405160405180910390a45060016101f0565b505f6101f0565b5f5f829050601f815111156102d4578260405163305a27a960e01b81526004016102cb9190610466565b60405180910390fd5b80516102df8261049b565b179392505050565b5f602082840312156102f7575f5ffd5b81516001600160a01b038116811461030d575f5ffd5b9392505050565b634e487b7160e01b5f52604160045260245ffd5b600181811c9082168061033c57607f821691505b60208210810361035a57634e487b7160e01b5f52602260045260245ffd5b50919050565b601f8211156103a757805f5260205f20601f840160051c810160208510156103855750805b601f840160051c820191505b818110156103a4575f8155600101610391565b50505b505050565b81516001600160401b038111156103c5576103c5610314565b6103d9816103d38454610328565b84610360565b6020601f82116001811461040b575f83156103f45750848201515b5f19600385901b1c1916600184901b1784556103a4565b5f84815260208120601f198516915b8281101561043a578785015182556020948501946001909201910161041a565b508482101561045757868401515f19600387901b60f8161c191681555b50505050600190811b01905550565b602081525f82518060208401528060208501604085015e5f604082850101526040601f19601f83011684010191505092915050565b8051602080830151919081101561035a575f1960209190910360031b1b16919050565b60805160a05160c05160e05161010051610120516101405161139d61050f5f395f610b5001525f610b2301525f6109f901525f6109d101525f61092c01525f61095601525f610980015261139d5ff3fe608060405234801561000f575f5ffd5b506004361061016d575f3560e01c806370a08231116100d95780639dc29fac11610093578063d505accf1161006e578063d505accf1461031e578063d539139314610331578063d547741f14610358578063dd62ed3e1461036b575f5ffd5b80639dc29fac146102f1578063a217fddf14610304578063a9059cbb1461030b575f5ffd5b806370a082311461026d57806379cc6790146102955780637ecebe00146102a857806384b0196e146102bb57806391d14854146102d657806395d89b41146102e9575f5ffd5b80632f2ff15d1161012a5780632f2ff15d14610208578063313ce5671461021d5780633644e5151461022c57806336568abe1461023457806340c10f191461024757806342966c681461025a575f5ffd5b806301ffc9a71461017157806306fdde0314610199578063095ea7b3146101ae57806318160ddd146101c157806323b872dd146101d3578063248a9ca3146101e6575b5f5ffd5b61018461017f36600461108c565b6103a3565b60405190151581526020015b60405180910390f35b6101a16103d9565b60405161019091906110e8565b6101846101bc366004611115565b610469565b6002545b604051908152602001610190565b6101846101e136600461113d565b610480565b6101c56101f4366004611177565b5f9081526005602052604090206001015490565b61021b61021636600461118e565b6104a3565b005b60405160128152602001610190565b6101c56104cd565b61021b61024236600461118e565b6104db565b61021b610255366004611115565b610513565b61021b610268366004611177565b610547565b6101c561027b3660046111b8565b6001600160a01b03165f9081526020819052604090205490565b61021b6102a3366004611115565b610554565b6101c56102b63660046111b8565b61056d565b6102c361058a565b60405161019097969594939291906111d1565b6101846102e436600461118e565b6105cc565b6101a16105f6565b61021b6102ff366004611115565b610605565b6101c55f81565b610184610319366004611115565b610639565b61021b61032c366004611267565b610646565b6101c57f9f2df0fed2c77648de5860a4cc508cd0818c85b8b8a1ab4ceeef8d981c8956a681565b61021b61036636600461118e565b610781565b6101c56103793660046112d4565b6001600160a01b039182165f90815260016020908152604080832093909416825291909152205490565b5f6001600160e01b03198216637965db0b60e01b14806103d357506301ffc9a760e01b6001600160e01b03198316145b92915050565b6060600380546103e8906112fc565b80601f0160208091040260200160405190810160405280929190818152602001828054610414906112fc565b801561045f5780601f106104365761010080835404028352916020019161045f565b820191905f5260205f20905b81548152906001019060200180831161044257829003601f168201915b5050505050905090565b5f336104768185856107a5565b5060019392505050565b5f3361048d8582856107b2565b610498858585610828565b506001949350505050565b5f828152600560205260409020600101546104bd81610885565b6104c7838361088f565b50505050565b5f6104d6610920565b905090565b6001600160a01b03811633146105045760405163334bd91960e11b815260040160405180910390fd5b61050e8282610a49565b505050565b7f9f2df0fed2c77648de5860a4cc508cd0818c85b8b8a1ab4ceeef8d981c8956a661053d81610885565b61050e8383610ab4565b6105513382610ae8565b50565b61055f8233836107b2565b6105698282610ae8565b5050565b6001600160a01b0381165f908152600860205260408120546103d3565b5f6060805f5f5f606061059b610b1c565b6105a3610b49565b604080515f80825260208201909252600f60f81b9b939a50919850469750309650945092509050565b5f9182526005602090815260408084206001600160a01b0393909316845291905290205460ff1690565b6060600480546103e8906112fc565b7f9f2df0fed2c77648de5860a4cc508cd0818c85b8b8a1ab4ceeef8d981c8956a661062f81610885565b61050e8383610ae8565b5f33610476818585610828565b8342111561066f5760405163313c898160e11b8152600481018590526024015b60405180910390fd5b5f7f6e71edae12b1b97f4d1f60370fef10105fa2faae0126114a169c64845d6126c98888886106ba8c6001600160a01b03165f90815260086020526040902080546001810190915590565b6040805160208101969096526001600160a01b0394851690860152929091166060840152608083015260a082015260c0810186905260e0016040516020818303038152906040528051906020012090505f61071482610b76565b90505f61072382878787610ba2565b9050896001600160a01b0316816001600160a01b03161461076a576040516325c0072360e11b81526001600160a01b0380831660048301528b166024820152604401610666565b6107758a8a8a6107a5565b50505050505050505050565b5f8281526005602052604090206001015461079b81610885565b6104c78383610a49565b61050e8383836001610bce565b6001600160a01b038381165f908152600160209081526040808320938616835292905220545f198110156104c7578181101561081a57604051637dc7a0d960e11b81526001600160a01b03841660048201526024810182905260448101839052606401610666565b6104c784848484035f610bce565b6001600160a01b03831661085157604051634b637e8f60e11b81525f6004820152602401610666565b6001600160a01b03821661087a5760405163ec442f0560e01b81525f6004820152602401610666565b61050e838383610ca0565b6105518133610dc6565b5f61089a83836105cc565b610919575f8381526005602090815260408083206001600160a01b03861684529091529020805460ff191660011790556108d13390565b6001600160a01b0316826001600160a01b0316847f2f8788117e7eff1d82e926ec794901d17c78024a50270940304540a733656f0d60405160405180910390a45060016103d3565b505f6103d3565b5f306001600160a01b037f00000000000000000000000000000000000000000000000000000000000000001614801561097857507f000000000000000000000000000000000000000000000000000000000000000046145b156109a257507f000000000000000000000000000000000000000000000000000000000000000090565b6104d6604080517f8b73c3c69bb8fe3d512ecc4cf759cc79239f7b179b0ffacaa9a75d522b39400f60208201527f0000000000000000000000000000000000000000000000000000000000000000918101919091527f000000000000000000000000000000000000000000000000000000000000000060608201524660808201523060a08201525f9060c00160405160208183030381529060405280519060200120905090565b5f610a5483836105cc565b15610919575f8381526005602090815260408083206001600160a01b0386168085529252808320805460ff1916905551339286917ff6391f5c32d9c69d2a47ea670b442974b53935d1edc7fd64eb21e047a839171b9190a45060016103d3565b6001600160a01b038216610add5760405163ec442f0560e01b81525f6004820152602401610666565b6105695f8383610ca0565b6001600160a01b038216610b1157604051634b637e8f60e11b81525f6004820152602401610666565b610569825f83610ca0565b60606104d67f00000000000000000000000000000000000000000000000000000000000000006006610dff565b60606104d67f00000000000000000000000000000000000000000000000000000000000000006007610dff565b5f6103d3610b82610920565b8360405161190160f01b8152600281019290925260228201526042902090565b5f5f5f5f610bb288888888610ea8565b925092509250610bc28282610f70565b50909695505050505050565b6001600160a01b038416610bf75760405163e602df0560e01b81525f6004820152602401610666565b6001600160a01b038316610c2057604051634a1406b160e11b81525f6004820152602401610666565b6001600160a01b038085165f90815260016020908152604080832093871683529290522082905580156104c757826001600160a01b0316846001600160a01b03167f8c5be1e5ebec7d5bd14f71427d1e84f3dd0314c0f7b2291e5b200ac8c7c3b92584604051610c9291815260200190565b60405180910390a350505050565b6001600160a01b038316610cca578060025f828254610cbf9190611334565b90915550610d3a9050565b6001600160a01b0383165f9081526020819052604090205481811015610d1c5760405163391434e360e21b81526001600160a01b03851660048201526024810182905260448101839052606401610666565b6001600160a01b0384165f9081526020819052604090209082900390555b6001600160a01b038216610d5657600280548290039055610d74565b6001600160a01b0382165f9081526020819052604090208054820190555b816001600160a01b0316836001600160a01b03167fddf252ad1be2c89b69c2b068fc378daa952ba7f163c4a11628f55a4df523b3ef83604051610db991815260200190565b60405180910390a3505050565b610dd082826105cc565b6105695760405163e2517d3f60e01b81526001600160a01b038216600482015260248101839052604401610666565b606060ff8314610e1957610e1283611028565b90506103d3565b818054610e25906112fc565b80601f0160208091040260200160405190810160405280929190818152602001828054610e51906112fc565b8015610e9c5780601f10610e7357610100808354040283529160200191610e9c565b820191905f5260205f20905b815481529060010190602001808311610e7f57829003601f168201915b505050505090506103d3565b5f80807f7fffffffffffffffffffffffffffffff5d576e7357a4501ddfe92f46681b20a0841115610ee157505f91506003905082610f66565b604080515f808252602082018084528a905260ff891692820192909252606081018790526080810186905260019060a0016020604051602081039080840390855afa158015610f32573d5f5f3e3d5ffd5b5050604051601f1901519150506001600160a01b038116610f5d57505f925060019150829050610f66565b92505f91508190505b9450945094915050565b5f826003811115610f8357610f83611353565b03610f8c575050565b6001826003811115610fa057610fa0611353565b03610fbe5760405163f645eedf60e01b815260040160405180910390fd5b6002826003811115610fd257610fd2611353565b03610ff35760405163fce698f760e01b815260048101829052602401610666565b600382600381111561100757611007611353565b03610569576040516335e2f38360e21b815260048101829052602401610666565b60605f61103483611065565b6040805160208082528183019092529192505f91906020820181803683375050509182525060208101929092525090565b5f60ff8216601f8111156103d357604051632cd44ac360e21b815260040160405180910390fd5b5f6020828403121561109c575f5ffd5b81356001600160e01b0319811681146110b3575f5ffd5b9392505050565b5f81518084528060208401602086015e5f602082860101526020601f19601f83011685010191505092915050565b602081525f6110b360208301846110ba565b80356001600160a01b0381168114611110575f5ffd5b919050565b5f5f60408385031215611126575f5ffd5b61112f836110fa565b946020939093013593505050565b5f5f5f6060848603121561114f575f5ffd5b611158846110fa565b9250611166602085016110fa565b929592945050506040919091013590565b5f60208284031215611187575f5ffd5b5035919050565b5f5f6040838503121561119f575f5ffd5b823591506111af602084016110fa565b90509250929050565b5f602082840312156111c8575f5ffd5b6110b3826110fa565b60ff60f81b8816815260e060208201525f6111ef60e08301896110ba565b828103604084015261120181896110ba565b606084018890526001600160a01b038716608085015260a0840186905283810360c0850152845180825260208087019350909101905f5b81811015611256578351835260209384019390920191600101611238565b50909b9a5050505050505050505050565b5f5f5f5f5f5f5f60e0888a03121561127d575f5ffd5b611286886110fa565b9650611294602089016110fa565b95506040880135945060608801359350608088013560ff811681146112b7575f5ffd5b9699959850939692959460a0840135945060c09093013592915050565b5f5f604083850312156112e5575f5ffd5b6112ee836110fa565b91506111af602084016110fa565b600181811c9082168061131057607f821691505b60208210810361132e57634e487b7160e01b5f52602260045260245ffd5b50919050565b808201808211156103d357634e487b7160e01b5f52601160045260245ffd5b634e487b7160e01b5f52602160045260245ffdfea26469706673582212209913d0e19192f269d15e8ff647ce8b53c475d19318bbb13d39859e3cd0fd33f664736f6c634300081c0033",
  "linkReferences": {},
  "deployedLinkReferences": {},
  "immutableReferences": {
    "3658": [
      {
        "length": 32,
        "start": 2432
      }
    ],
    "3660": [
      {
        "length": 32,
        "start": 2390
      }
    ],
    "3662": [
      {
        "length": 32,
        "start": 2348
      }
    ],
    "3664": [
      {
        "length": 32,
        "start": 2513
      }
    ],
    "3666": [
      {
        "length": 32,
        "start": 2553
      }
    ],
    "3669": [
      {
        "length": 32,
        "start": 2851
      }
    ],
    "3672": [
      {
        "length": 32,
        "start": 2896
      }
    ]
  },
  "inputSourceName": "project/contracts/OligarchyToken.sol",
  "buildInfoId": "solc-0_8_28-b5df6e389461cd0a0331af1b61f55be77b2f3671"
}