{
  "_format": "hh3-artifact-1",
  "contractName": "WarTheater",
  "sourceName": "contracts/WarTheater.sol",
  "abi": [
    {
      "inputs": [
        {
          "internalType": "address",
          "name": "_oligToken",
          "type": "address"
        },
        {
          "internalType": "address",
          "name": "_voter",
          "type": "address"
        }
      ],
      "stateMutability": "nonpayable",
      "type": "constructor"
    },
    {
      "inputs": [
        {
          "internalType": "address",
          "name": "owner",
          "type": "address"
        }
      ],
      "name": "OwnableInvalidOwner",
      "type": "error"
    },
    {
      "inputs": [
        {
          "internalType": "address",
          "name": "account",
          "type": "address"
        }
      ],
      "name": "OwnableUnauthorizedAccount",
      "type": "error"
    },
    {
      "inputs": [],
      "name": "ReentrancyGuardReentrantCall",
      "type": "error"
    },
    {
      "anonymous": false,
      "inputs": [
        {
          "indexed": true,
          "internalType": "address",
          "name": "previousOwner",
          "type": "address"
        },
        {
          "indexed": true,
          "internalType": "address",
          "name": "newOwner",
          "type": "address"
        }
      ],
      "name": "OwnershipTransferred",
      "type": "event"
    },
    {
      "anonymous": false,
      "inputs": [
        {
          "indexed": false,
          "internalType": "address",
          "name": "user",
          "type": "address"
        },
        {
          "indexed": false,
          "internalType": "uint256",
          "name": "regionId",
          "type": "uint256"
        },
        {
          "indexed": false,
          "internalType": "uint256",
          "name": "amount",
          "type": "uint256"
        },
        {
          "indexed": false,
          "internalType": "bool",
          "name": "isAttack",
          "type": "bool"
        }
      ],
      "name": "TroopsEnlisted",
      "type": "event"
    },
    {
      "anonymous": false,
      "inputs": [
        {
          "indexed": false,
          "internalType": "uint256",
          "name": "epoch",
          "type": "uint256"
        },
        {
          "indexed": false,
          "internalType": "uint256",
          "name": "attacker",
          "type": "uint256"
        },
        {
          "indexed": false,
          "internalType": "uint256",
          "name": "defender",
          "type": "uint256"
        }
      ],
      "name": "WarDeclared",
      "type": "event"
    },
    {
      "anonymous": false,
      "inputs": [
        {
          "indexed": false,
          "internalType": "uint256",
          "name": "epoch",
          "type": "uint256"
        },
        {
          "indexed": false,
          "internalType": "uint256",
          "name": "attacker",
          "type": "uint256"
        },
        {
          "indexed": false,
          "internalType": "uint256",
          "name": "defender",
          "type": "uint256"
        },
        {
          "indexed": false,
          "internalType": "bool",
          "name": "success",
          "type": "bool"
        }
      ],
      "name": "WarResult",
      "type": "event"
    },
    {
      "inputs": [],
      "name": "EPOCH_DURATION",
      "outputs": [
        {
          "internalType": "uint256",
          "name": "",
          "type": "uint256"
        }
      ],
      "stateMutability": "view",
      "type": "function"
    },
    {
      "inputs": [],
      "name": "LOOT_PERCENTAGE",
      "outputs": [
        {
          "internalType": "uint256",
          "name": "",
          "type": "uint256"
        }
      ],
      "stateMutability": "view",
      "type": "function"
    },
    {
      "inputs": [
        {
          "internalType": "uint256",
          "name": "_attackerRegion",
          "type": "uint256"
        },
        {
          "internalType": "uint256",
          "name": "_defenderRegion",
          "type": "uint256"
        }
      ],
      "name": "declareWar",
      "outputs": [],
      "stateMutability": "nonpayable",
      "type": "function"
    },
    {
      "inputs": [
        {
          "internalType": "uint256",
          "name": "_regionId",
          "type": "uint256"
        },
        {
          "internalType": "uint256",
          "name": "_amount",
          "type": "uint256"
        },
        {
          "internalType": "bool",
          "name": "_isAttack",
          "type": "bool"
        }
      ],
      "name": "enlistTroops",
      "outputs": [],
      "stateMutability": "nonpayable",
      "type": "function"
    },
    {
      "inputs": [],
      "name": "oligToken",
      "outputs": [
        {
          "internalType": "contract ERC20Burnable",
          "name": "",
          "type": "address"
        }
      ],
      "stateMutability": "view",
      "type": "function"
    },
    {
      "inputs": [],
      "name": "owner",
      "outputs": [
        {
          "internalType": "address",
          "name": "",
          "type": "address"
        }
      ],
      "stateMutability": "view",
      "type": "function"
    },
    {
      "inputs": [
        {
          "internalType": "uint256",
          "name": "",
          "type": "uint256"
        },
        {
          "internalType": "uint256",
          "name": "",
          "type": "uint256"
        }
      ],
      "name": "regionAttackPower",
      "outputs": [
        {
          "internalType": "uint256",
          "name": "",
          "type": "uint256"
        }
      ],
      "stateMutability": "view",
      "type": "function"
    },
    {
      "inputs": [
        {
          "internalType": "uint256",
          "name": "",
          "type": "uint256"
        },
        {
          "internalType": "uint256",
          "name": "",
          "type": "uint256"
        }
      ],
      "name": "regionDefensePower",
      "outputs": [
        {
          "internalType": "uint256",
          "name": "",
          "type": "uint256"
        }
      ],
      "stateMutability": "view",
      "type": "function"
    },
    {
      "inputs": [],
      "name": "renounceOwnership",
      "outputs": [],
      "stateMutability": "nonpayable",
      "type": "function"
    },
    {
      "inputs": [
        {
          "internalType": "uint256",
          "name": "_attackerRegion",
          "type": "uint256"
        }
      ],
      "name": "resolveWar",
      "outputs": [],
      "stateMutability": "nonpayable",
      "type": "function"
    },
    {
      "inputs": [
        {
          "internalType": "address",
          "name": "newOwner",
          "type": "address"
        }
      ],
      "name": "transferOwnership",
      "outputs": [],
      "stateMutability": "nonpayable",
      "type": "function"
    },
    {
      "inputs": [],
      "name": "voter",
      "outputs": [
        {
          "internalType": "contract IOligarchyVoter",
          "name": "",
          "type": "address"
        }
      ],
      "stateMutability": "view",
      "type": "function"
    },
    {
      "inputs": [
        {
          "internalType": "uint256",
          "name": "",
          "type": "uint256"
        },
        {
          "internalType": "uint256",
          "name": "",
          "type": "uint256"
        }
      ],
      "name": "warResolved",
      "outputs": [
        {
          "internalType": "bool",
          "name": "",
          "type": "bool"
        }
      ],
      "stateMutability": "view",
      "type": "function"
    },
    {
      "inputs": [
        {
          "internalType": "uint256",
          "name": "",
          "type": "uint256"
        },
        {
          "internalType": "uint256",
          "name": "",
          "type": "uint256"
        }
      ],
      "name": "warTargets",
      "outputs": [
        {
          "internalType": "uint256",
          "name": "",
          "type": "uint256"
        }
      ],
      "stateMutability": "view",
      "type": "function"
    }
  ],
  "bytecode": "0x60a060405234801561000f575f5ffd5b50604051610aed380380610aed83398101604081905261002e916100f3565b338061005357604051631e4fbdf760e01b81525f600482015260240160405180910390fd5b61005c81610089565b50600180556001600160a01b03918216608052600280546001600160a01b03191691909216179055610124565b5f80546001600160a01b038381166001600160a01b0319831681178455604051919092169283917f8be0079c531659141344cd1fd0a4f28419497f9722a3daafe3b4186f6b6457e09190a35050565b80516001600160a01b03811681146100ee575f5ffd5b919050565b5f5f60408385031215610104575f5ffd5b61010d836100d8565b915061011b602084016100d8565b90509250929050565b6080516109aa6101435f395f81816101bf015261060501526109aa5ff3fe608060405234801561000f575f5ffd5b50600436106100e5575f3560e01c8063bd9105cb11610088578063e674098f11610063578063e674098f1461021e578063f2fde38b14610231578063fde2447e14610244578063fde6ee711461026e575f5ffd5b8063bd9105cb146101a7578063c6c14208146101ba578063caae794d146101e1575f5ffd5b806376ee8d07116100c357806376ee8d07146101395780638da5cb5b14610163578063a70b9f0c14610173578063ba3f41341461017d575f5ffd5b806346c96aac146100e95780636dce0fff14610119578063715018a61461012f575b5f5ffd5b6002546100fc906001600160a01b031681565b6040516001600160a01b0390911681526020015b60405180910390f35b610121601e81565b604051908152602001610110565b610137610281565b005b61012161014736600461089a565b600560209081525f928352604080842090915290825290205481565b5f546001600160a01b03166100fc565b61012162093a8081565b61012161018b36600461089a565b600360209081525f928352604080842090915290825290205481565b6101376101b536600461089a565b610294565b6100fc7f000000000000000000000000000000000000000000000000000000000000000081565b61020e6101ef36600461089a565b600660209081525f928352604080842090915290825290205460ff1681565b6040519015158152602001610110565b61013761022c3660046108ba565b610398565b61013761023f3660046108d1565b61056a565b61012161025236600461089a565b600460209081525f928352604080842090915290825290205481565b61013761027c3660046108fe565b6105a4565b610289610785565b6102925f6107b1565b565b5f61029d610800565b90508183036102e15760405162461bcd60e51b815260206004820152600b60248201526a53656c662061747461636b60a81b60448201526064015b60405180910390fd5b5f818152600560209081526040808320868452909152902054156103395760405162461bcd60e51b815260206004820152600f60248201526e416c72656164792077617272696e6760881b60448201526064016102d8565b5f81815260056020908152604080832086845282529182902084905581518381529081018590529081018390527f3d61ef87e0687948bfbb78633b91769cb5c378fdbcfbf48ad4e18ea02e0224869060600160405180910390a1505050565b6103a0610870565b5f6103a9610800565b5f8181526005602090815260408083208684529091528120549192508190036103fd5760405162461bcd60e51b81526020600482015260066024820152652737903bb0b960d11b60448201526064016102d8565b5f82815260066020908152604080832086845290915290205460ff16156104515760405162461bcd60e51b815260206004820152600860248201526714995cdbdb1d995960c21b60448201526064016102d8565b5f828152600360209081526040808320868452825280832054858452600483528184208585529092529091205480821180156104ef576002546040516391c8626560e01b81526004810186905260248101889052601e60448201526001600160a01b03909116906391c86265906064015f604051808303815f87803b1580156104d8575f5ffd5b505af11580156104ea573d5f5f3e3d5ffd5b505050505b5f858152600660209081526040808320898452825291829020805460ff19166001179055815187815290810188905290810185905281151560608201527f89b057676327767246015c69f9bf767f6758d00fc08b3fad49bc21e06b0c74839060800160405180910390a1505050505061056760018055565b50565b610572610785565b6001600160a01b03811661059b57604051631e4fbdf760e01b81525f60048201526024016102d8565b610567816107b1565b6105ac610870565b5f82116105e95760405162461bcd60e51b815260206004820152600b60248201526a4e6565642074726f6f707360a81b60448201526064016102d8565b60405163079cc67960e41b8152336004820152602481018390527f00000000000000000000000000000000000000000000000000000000000000006001600160a01b0316906379cc6790906044015f604051808303815f87803b15801561064e575f5ffd5b505af1158015610660573d5f5f3e3d5ffd5b505050505f61066d610800565b905081156106ff575f81815260056020908152604080832087845290915281205490036106cc5760405162461bcd60e51b815260206004820152600d60248201526c139bc81dd85c881d185c99d95d609a1b60448201526064016102d8565b5f818152600360209081526040808320878452909152812080548592906106f4908490610938565b9091555061072d9050565b5f81815260046020908152604080832087845290915281208054859290610727908490610938565b90915550505b604080513381526020810186905290810184905282151560608201527f3df20c5fbc846b9da647904a461d9f6d73976236db55970e92b642e0295b5d399060800160405180910390a15061078060018055565b505050565b5f546001600160a01b031633146102925760405163118cdaa760e01b81523360048201526024016102d8565b5f80546001600160a01b038381166001600160a01b0319831681178455604051919092169283917f8be0079c531659141344cd1fd0a4f28419497f9722a3daafe3b4186f6b6457e09190a35050565b60025460408051635cbeecf160e11b815290515f926001600160a01b03169163b97dd9e29160048083019260209291908290030181865afa158015610847573d5f5f3e3d5ffd5b505050506040513d601f19601f8201168201806040525081019061086b919061095d565b905090565b60026001540361089357604051633ee5aeb560e01b815260040160405180910390fd5b6002600155565b5f5f604083850312156108ab575f5ffd5b50508035926020909101359150565b5f602082840312156108ca575f5ffd5b5035919050565b5f602082840312156108e1575f5ffd5b81356001600160a01b03811681146108f7575f5ffd5b9392505050565b5f5f5f60608486031215610910575f5ffd5b83359250602084013591506040840135801515811461092d575f5ffd5b809150509250925092565b8082018082111561095757634e487b7160e01b5f52601160045260245ffd5b92915050565b5f6020828403121561096d575f5ffd5b505191905056fea26469706673582212206592aa5ed8f600393ca8103eb7b1c98451cabfa7d2ee99a8b040da1395f02ba064736f6c634300081c0033",
  "linkReferences": {},
  "deployedLinkReferences": {},
  "immutableReferences": {
    "1061": [
      {
        "length": 32,
        "start": 447
      },
      {
        "length": 32,
        "start": 1541
      }
    ]
  },
  "inputSourceName": "project/contracts/WarTheater.sol",
  "buildInfoId": "solc-0_8_28-8b6a0ffacd4e44f2c1156f086684b097cbf7d4f2"
}